
Timer_check_INT_based.elf:     file format elf32-littlearm

Sections:
Idx Name          Size      VMA       LMA       File off  Algn
  0 .isr_vector   00000194  08000000  08000000  00010000  2**0
                  CONTENTS, ALLOC, LOAD, READONLY, DATA
  1 .text         00000d08  08000194  08000194  00010194  2**2
                  CONTENTS, ALLOC, LOAD, READONLY, CODE
  2 .rodata       00000000  08000e9c  08000e9c  0002000c  2**0
                  CONTENTS, ALLOC, LOAD, DATA
  3 .ARM.extab    00000000  08000e9c  08000e9c  0002000c  2**0
                  CONTENTS
  4 .ARM          00000000  08000e9c  08000e9c  0002000c  2**0
                  CONTENTS
  5 .preinit_array 00000000  08000e9c  08000e9c  0002000c  2**0
                  CONTENTS, ALLOC, LOAD, DATA
  6 .init_array   00000004  08000e9c  08000e9c  00010e9c  2**2
                  CONTENTS, ALLOC, LOAD, DATA
  7 .fini_array   00000004  08000ea0  08000ea0  00010ea0  2**2
                  CONTENTS, ALLOC, LOAD, DATA
  8 .data         0000000c  20000000  08000ea4  00020000  2**2
                  CONTENTS, ALLOC, LOAD, DATA
  9 .bss          00000060  2000000c  08000eb0  0002000c  2**2
                  ALLOC
 10 ._user_heap_stack 00000604  2000006c  08000eb0  0002006c  2**0
                  ALLOC
 11 .ARM.attributes 00000030  00000000  00000000  0002000c  2**0
                  CONTENTS, READONLY
 12 .debug_info   00007dc3  00000000  00000000  0002003c  2**0
                  CONTENTS, READONLY, DEBUGGING
 13 .debug_abbrev 00001186  00000000  00000000  00027dff  2**0
                  CONTENTS, READONLY, DEBUGGING
 14 .debug_aranges 00000840  00000000  00000000  00028f88  2**3
                  CONTENTS, READONLY, DEBUGGING
 15 .debug_ranges 000007a8  00000000  00000000  000297c8  2**3
                  CONTENTS, READONLY, DEBUGGING
 16 .debug_macro  000156b8  00000000  00000000  00029f70  2**0
                  CONTENTS, READONLY, DEBUGGING
 17 .debug_line   00005aa9  00000000  00000000  0003f628  2**0
                  CONTENTS, READONLY, DEBUGGING
 18 .debug_str    000889cd  00000000  00000000  000450d1  2**0
                  CONTENTS, READONLY, DEBUGGING
 19 .comment      0000007b  00000000  00000000  000cda9e  2**0
                  CONTENTS, READONLY
 20 .debug_frame  000021ec  00000000  00000000  000cdb1c  2**2
                  CONTENTS, READONLY, DEBUGGING

Disassembly of section .text:

08000194 <__do_global_dtors_aux>:
 8000194:	b510      	push	{r4, lr}
 8000196:	4c05      	ldr	r4, [pc, #20]	; (80001ac <__do_global_dtors_aux+0x18>)
 8000198:	7823      	ldrb	r3, [r4, #0]
 800019a:	b933      	cbnz	r3, 80001aa <__do_global_dtors_aux+0x16>
 800019c:	4b04      	ldr	r3, [pc, #16]	; (80001b0 <__do_global_dtors_aux+0x1c>)
 800019e:	b113      	cbz	r3, 80001a6 <__do_global_dtors_aux+0x12>
 80001a0:	4804      	ldr	r0, [pc, #16]	; (80001b4 <__do_global_dtors_aux+0x20>)
 80001a2:	f3af 8000 	nop.w
 80001a6:	2301      	movs	r3, #1
 80001a8:	7023      	strb	r3, [r4, #0]
 80001aa:	bd10      	pop	{r4, pc}
 80001ac:	2000000c 	.word	0x2000000c
 80001b0:	00000000 	.word	0x00000000
 80001b4:	08000e84 	.word	0x08000e84

080001b8 <frame_dummy>:
 80001b8:	b508      	push	{r3, lr}
 80001ba:	4b03      	ldr	r3, [pc, #12]	; (80001c8 <frame_dummy+0x10>)
 80001bc:	b11b      	cbz	r3, 80001c6 <frame_dummy+0xe>
 80001be:	4903      	ldr	r1, [pc, #12]	; (80001cc <frame_dummy+0x14>)
 80001c0:	4803      	ldr	r0, [pc, #12]	; (80001d0 <frame_dummy+0x18>)
 80001c2:	f3af 8000 	nop.w
 80001c6:	bd08      	pop	{r3, pc}
 80001c8:	00000000 	.word	0x00000000
 80001cc:	20000010 	.word	0x20000010
 80001d0:	08000e84 	.word	0x08000e84

080001d4 <SysTick_Handler>:
#include"main.h"

extern TIM_HandleTypeDef htimer2;

void SysTick_Handler(void)
{
 80001d4:	b580      	push	{r7, lr}
 80001d6:	af00      	add	r7, sp, #0
	HAL_IncTick();
 80001d8:	f000 f94e 	bl	8000478 <HAL_IncTick>
	HAL_SYSTICK_IRQHandler();
 80001dc:	f000 fa71 	bl	80006c2 <HAL_SYSTICK_IRQHandler>

}
 80001e0:	bf00      	nop
 80001e2:	bd80      	pop	{r7, pc}

080001e4 <TIM2_IRQHandler>:

void TIM2_IRQHandler(void)
{
 80001e4:	b580      	push	{r7, lr}
 80001e6:	af00      	add	r7, sp, #0
	HAL_TIM_IRQHandler(&htimer2);
 80001e8:	4802      	ldr	r0, [pc, #8]	; (80001f4 <TIM2_IRQHandler+0x10>)
 80001ea:	f000 fc63 	bl	8000ab4 <HAL_TIM_IRQHandler>
}
 80001ee:	bf00      	nop
 80001f0:	bd80      	pop	{r7, pc}
 80001f2:	bf00      	nop
 80001f4:	20000028 	.word	0x20000028

080001f8 <main>:
void Error_handler(void);



int main(void)
{
 80001f8:	b580      	push	{r7, lr}
 80001fa:	af00      	add	r7, sp, #0
	HAL_Init();
 80001fc:	f000 f8ea 	bl	80003d4 <HAL_Init>
	SystemClockConfig();
 8000200:	f000 f832 	bl	8000268 <SystemClockConfig>
	GPIO_Init();
 8000204:	f000 f838 	bl	8000278 <GPIO_Init>
	timer2_init();
 8000208:	f000 f806 	bl	8000218 <timer2_init>

	HAL_TIM_Base_Start_IT(&htimer2);
 800020c:	4801      	ldr	r0, [pc, #4]	; (8000214 <main+0x1c>)
 800020e:	f000 fc2d 	bl	8000a6c <HAL_TIM_Base_Start_IT>

	while(1);
 8000212:	e7fe      	b.n	8000212 <main+0x1a>
 8000214:	20000028 	.word	0x20000028

08000218 <timer2_init>:
}



void timer2_init(void)
{
 8000218:	b580      	push	{r7, lr}
 800021a:	af00      	add	r7, sp, #0
	htimer2.Instance = TIM2;
 800021c:	4b0a      	ldr	r3, [pc, #40]	; (8000248 <timer2_init+0x30>)
 800021e:	f04f 4280 	mov.w	r2, #1073741824	; 0x40000000
 8000222:	601a      	str	r2, [r3, #0]
	htimer2.Init.Prescaler = 24;
 8000224:	4b08      	ldr	r3, [pc, #32]	; (8000248 <timer2_init+0x30>)
 8000226:	2218      	movs	r2, #24
 8000228:	605a      	str	r2, [r3, #4]
	htimer2.Init.Period = 6400-1;
 800022a:	4b07      	ldr	r3, [pc, #28]	; (8000248 <timer2_init+0x30>)
 800022c:	f641 02ff 	movw	r2, #6399	; 0x18ff
 8000230:	60da      	str	r2, [r3, #12]
	if(HAL_TIM_Base_Init(&htimer2)!=HAL_OK)
 8000232:	4805      	ldr	r0, [pc, #20]	; (8000248 <timer2_init+0x30>)
 8000234:	f000 fbef 	bl	8000a16 <HAL_TIM_Base_Init>
 8000238:	4603      	mov	r3, r0
 800023a:	2b00      	cmp	r3, #0
 800023c:	d001      	beq.n	8000242 <timer2_init+0x2a>
		Error_handler();
 800023e:	f000 f83f 	bl	80002c0 <Error_handler>

}
 8000242:	bf00      	nop
 8000244:	bd80      	pop	{r7, pc}
 8000246:	bf00      	nop
 8000248:	20000028 	.word	0x20000028

0800024c <HAL_TIM_PeriodElapsedCallback>:


void HAL_TIM_PeriodElapsedCallback(TIM_HandleTypeDef *htim)
{
 800024c:	b580      	push	{r7, lr}
 800024e:	b082      	sub	sp, #8
 8000250:	af00      	add	r7, sp, #0
 8000252:	6078      	str	r0, [r7, #4]
	HAL_GPIO_TogglePin(GPIOC, GPIO_PIN_3);
 8000254:	2108      	movs	r1, #8
 8000256:	4803      	ldr	r0, [pc, #12]	; (8000264 <HAL_TIM_PeriodElapsedCallback+0x18>)
 8000258:	f000 fbc2 	bl	80009e0 <HAL_GPIO_TogglePin>
}
 800025c:	bf00      	nop
 800025e:	3708      	adds	r7, #8
 8000260:	46bd      	mov	sp, r7
 8000262:	bd80      	pop	{r7, pc}
 8000264:	40020800 	.word	0x40020800

08000268 <SystemClockConfig>:

void SystemClockConfig(void)
{
 8000268:	b480      	push	{r7}
 800026a:	af00      	add	r7, sp, #0

}
 800026c:	bf00      	nop
 800026e:	46bd      	mov	sp, r7
 8000270:	f85d 7b04 	ldr.w	r7, [sp], #4
 8000274:	4770      	bx	lr
	...

08000278 <GPIO_Init>:

void GPIO_Init(void)
{
 8000278:	b580      	push	{r7, lr}
 800027a:	b086      	sub	sp, #24
 800027c:	af00      	add	r7, sp, #0
    __HAL_RCC_GPIOC_CLK_ENABLE();
 800027e:	2300      	movs	r3, #0
 8000280:	603b      	str	r3, [r7, #0]
 8000282:	4b0d      	ldr	r3, [pc, #52]	; (80002b8 <GPIO_Init+0x40>)
 8000284:	6b1b      	ldr	r3, [r3, #48]	; 0x30
 8000286:	4a0c      	ldr	r2, [pc, #48]	; (80002b8 <GPIO_Init+0x40>)
 8000288:	f043 0304 	orr.w	r3, r3, #4
 800028c:	6313      	str	r3, [r2, #48]	; 0x30
 800028e:	4b0a      	ldr	r3, [pc, #40]	; (80002b8 <GPIO_Init+0x40>)
 8000290:	6b1b      	ldr	r3, [r3, #48]	; 0x30
 8000292:	f003 0304 	and.w	r3, r3, #4
 8000296:	603b      	str	r3, [r7, #0]
 8000298:	683b      	ldr	r3, [r7, #0]
	GPIO_InitTypeDef ledgpio;
	ledgpio.Pin = GPIO_PIN_3;
 800029a:	2308      	movs	r3, #8
 800029c:	607b      	str	r3, [r7, #4]
	ledgpio.Mode = GPIO_MODE_OUTPUT_PP;
 800029e:	2301      	movs	r3, #1
 80002a0:	60bb      	str	r3, [r7, #8]
	ledgpio.Pull = GPIO_NOPULL;
 80002a2:	2300      	movs	r3, #0
 80002a4:	60fb      	str	r3, [r7, #12]
	HAL_GPIO_Init(GPIOC,&ledgpio);
 80002a6:	1d3b      	adds	r3, r7, #4
 80002a8:	4619      	mov	r1, r3
 80002aa:	4804      	ldr	r0, [pc, #16]	; (80002bc <GPIO_Init+0x44>)
 80002ac:	f000 fa16 	bl	80006dc <HAL_GPIO_Init>
}
 80002b0:	bf00      	nop
 80002b2:	3718      	adds	r7, #24
 80002b4:	46bd      	mov	sp, r7
 80002b6:	bd80      	pop	{r7, pc}
 80002b8:	40023800 	.word	0x40023800
 80002bc:	40020800 	.word	0x40020800

080002c0 <Error_handler>:


void Error_handler(void)
{
 80002c0:	b480      	push	{r7}
 80002c2:	af00      	add	r7, sp, #0


}
 80002c4:	bf00      	nop
 80002c6:	46bd      	mov	sp, r7
 80002c8:	f85d 7b04 	ldr.w	r7, [sp], #4
 80002cc:	4770      	bx	lr
	...

080002d0 <HAL_MspInit>:


#include "main.h"

void HAL_MspInit(void)
{
 80002d0:	b580      	push	{r7, lr}
 80002d2:	af00      	add	r7, sp, #0
	HAL_NVIC_SetPriorityGrouping(NVIC_PRIORITYGROUP_4);
 80002d4:	2003      	movs	r0, #3
 80002d6:	f000 f9b3 	bl	8000640 <HAL_NVIC_SetPriorityGrouping>
	SCB->SHCSR |= 0x7 <<16;
 80002da:	4b0d      	ldr	r3, [pc, #52]	; (8000310 <HAL_MspInit+0x40>)
 80002dc:	6a5b      	ldr	r3, [r3, #36]	; 0x24
 80002de:	4a0c      	ldr	r2, [pc, #48]	; (8000310 <HAL_MspInit+0x40>)
 80002e0:	f443 23e0 	orr.w	r3, r3, #458752	; 0x70000
 80002e4:	6253      	str	r3, [r2, #36]	; 0x24
	HAL_NVIC_SetPriority(MemoryManagement_IRQn,0,0);
 80002e6:	2200      	movs	r2, #0
 80002e8:	2100      	movs	r1, #0
 80002ea:	f06f 000b 	mvn.w	r0, #11
 80002ee:	f000 f9b2 	bl	8000656 <HAL_NVIC_SetPriority>
	HAL_NVIC_SetPriority(BusFault_IRQn,0,0);
 80002f2:	2200      	movs	r2, #0
 80002f4:	2100      	movs	r1, #0
 80002f6:	f06f 000a 	mvn.w	r0, #10
 80002fa:	f000 f9ac 	bl	8000656 <HAL_NVIC_SetPriority>
	HAL_NVIC_SetPriority(UsageFault_IRQn,0,0);
 80002fe:	2200      	movs	r2, #0
 8000300:	2100      	movs	r1, #0
 8000302:	f06f 0009 	mvn.w	r0, #9
 8000306:	f000 f9a6 	bl	8000656 <HAL_NVIC_SetPriority>

}
 800030a:	bf00      	nop
 800030c:	bd80      	pop	{r7, pc}
 800030e:	bf00      	nop
 8000310:	e000ed00 	.word	0xe000ed00

08000314 <HAL_TIM_Base_MspInit>:

void HAL_TIM_Base_MspInit(TIM_HandleTypeDef *htim)
{
 8000314:	b580      	push	{r7, lr}
 8000316:	b084      	sub	sp, #16
 8000318:	af00      	add	r7, sp, #0
 800031a:	6078      	str	r0, [r7, #4]
	__HAL_RCC_TIM2_CLK_ENABLE();  // Enable timer clock
 800031c:	2300      	movs	r3, #0
 800031e:	60fb      	str	r3, [r7, #12]
 8000320:	4b0b      	ldr	r3, [pc, #44]	; (8000350 <HAL_TIM_Base_MspInit+0x3c>)
 8000322:	6c1b      	ldr	r3, [r3, #64]	; 0x40
 8000324:	4a0a      	ldr	r2, [pc, #40]	; (8000350 <HAL_TIM_Base_MspInit+0x3c>)
 8000326:	f043 0301 	orr.w	r3, r3, #1
 800032a:	6413      	str	r3, [r2, #64]	; 0x40
 800032c:	4b08      	ldr	r3, [pc, #32]	; (8000350 <HAL_TIM_Base_MspInit+0x3c>)
 800032e:	6c1b      	ldr	r3, [r3, #64]	; 0x40
 8000330:	f003 0301 	and.w	r3, r3, #1
 8000334:	60fb      	str	r3, [r7, #12]
 8000336:	68fb      	ldr	r3, [r7, #12]
	HAL_NVIC_EnableIRQ( TIM2_IRQn ); // enable IRQ of tim2
 8000338:	201c      	movs	r0, #28
 800033a:	f000 f9a8 	bl	800068e <HAL_NVIC_EnableIRQ>
	HAL_NVIC_SetPriority(TIM2_IRQn, 15, 0);
 800033e:	2200      	movs	r2, #0
 8000340:	210f      	movs	r1, #15
 8000342:	201c      	movs	r0, #28
 8000344:	f000 f987 	bl	8000656 <HAL_NVIC_SetPriority>

}
 8000348:	bf00      	nop
 800034a:	3710      	adds	r7, #16
 800034c:	46bd      	mov	sp, r7
 800034e:	bd80      	pop	{r7, pc}
 8000350:	40023800 	.word	0x40023800

08000354 <SystemInit>:
  *         configuration.
  * @param  None
  * @retval None
  */
void SystemInit(void)
{
 8000354:	b480      	push	{r7}
 8000356:	af00      	add	r7, sp, #0
  /* FPU settings ------------------------------------------------------------*/
  #if (__FPU_PRESENT == 1) && (__FPU_USED == 1)
    SCB->CPACR |= ((3UL << 10*2)|(3UL << 11*2));  /* set CP10 and CP11 Full Access */
 8000358:	4b08      	ldr	r3, [pc, #32]	; (800037c <SystemInit+0x28>)
 800035a:	f8d3 3088 	ldr.w	r3, [r3, #136]	; 0x88
 800035e:	4a07      	ldr	r2, [pc, #28]	; (800037c <SystemInit+0x28>)
 8000360:	f443 0370 	orr.w	r3, r3, #15728640	; 0xf00000
 8000364:	f8c2 3088 	str.w	r3, [r2, #136]	; 0x88

  /* Configure the Vector Table location add offset address ------------------*/
#ifdef VECT_TAB_SRAM
  SCB->VTOR = SRAM_BASE | VECT_TAB_OFFSET; /* Vector Table Relocation in Internal SRAM */
#else
  SCB->VTOR = FLASH_BASE | VECT_TAB_OFFSET; /* Vector Table Relocation in Internal FLASH */
 8000368:	4b04      	ldr	r3, [pc, #16]	; (800037c <SystemInit+0x28>)
 800036a:	f04f 6200 	mov.w	r2, #134217728	; 0x8000000
 800036e:	609a      	str	r2, [r3, #8]
#endif
}
 8000370:	bf00      	nop
 8000372:	46bd      	mov	sp, r7
 8000374:	f85d 7b04 	ldr.w	r7, [sp], #4
 8000378:	4770      	bx	lr
 800037a:	bf00      	nop
 800037c:	e000ed00 	.word	0xe000ed00

08000380 <Reset_Handler>:

    .section  .text.Reset_Handler
  .weak  Reset_Handler
  .type  Reset_Handler, %function
Reset_Handler:  
  ldr   sp, =_estack    		 /* set stack pointer */
 8000380:	f8df d034 	ldr.w	sp, [pc, #52]	; 80003b8 <LoopFillZerobss+0x14>

/* Copy the data segment initializers from flash to SRAM */  
  movs  r1, #0
 8000384:	2100      	movs	r1, #0
  b  LoopCopyDataInit
 8000386:	e003      	b.n	8000390 <LoopCopyDataInit>

08000388 <CopyDataInit>:

CopyDataInit:
  ldr  r3, =_sidata
 8000388:	4b0c      	ldr	r3, [pc, #48]	; (80003bc <LoopFillZerobss+0x18>)
  ldr  r3, [r3, r1]
 800038a:	585b      	ldr	r3, [r3, r1]
  str  r3, [r0, r1]
 800038c:	5043      	str	r3, [r0, r1]
  adds  r1, r1, #4
 800038e:	3104      	adds	r1, #4

08000390 <LoopCopyDataInit>:
    
LoopCopyDataInit:
  ldr  r0, =_sdata
 8000390:	480b      	ldr	r0, [pc, #44]	; (80003c0 <LoopFillZerobss+0x1c>)
  ldr  r3, =_edata
 8000392:	4b0c      	ldr	r3, [pc, #48]	; (80003c4 <LoopFillZerobss+0x20>)
  adds  r2, r0, r1
 8000394:	1842      	adds	r2, r0, r1
  cmp  r2, r3
 8000396:	429a      	cmp	r2, r3
  bcc  CopyDataInit
 8000398:	d3f6      	bcc.n	8000388 <CopyDataInit>
  ldr  r2, =_sbss
 800039a:	4a0b      	ldr	r2, [pc, #44]	; (80003c8 <LoopFillZerobss+0x24>)
  b  LoopFillZerobss
 800039c:	e002      	b.n	80003a4 <LoopFillZerobss>

0800039e <FillZerobss>:
/* Zero fill the bss segment. */  
FillZerobss:
  movs  r3, #0
 800039e:	2300      	movs	r3, #0
  str  r3, [r2], #4
 80003a0:	f842 3b04 	str.w	r3, [r2], #4

080003a4 <LoopFillZerobss>:
    
LoopFillZerobss:
  ldr  r3, = _ebss
 80003a4:	4b09      	ldr	r3, [pc, #36]	; (80003cc <LoopFillZerobss+0x28>)
  cmp  r2, r3
 80003a6:	429a      	cmp	r2, r3
  bcc  FillZerobss
 80003a8:	d3f9      	bcc.n	800039e <FillZerobss>

/* Call the clock system intitialization function.*/
  bl  SystemInit   
 80003aa:	f7ff ffd3 	bl	8000354 <SystemInit>
/* Call static constructors */
    bl __libc_init_array
 80003ae:	f000 fd45 	bl	8000e3c <__libc_init_array>
/* Call the application's entry point.*/
  bl  main
 80003b2:	f7ff ff21 	bl	80001f8 <main>
  bx  lr    
 80003b6:	4770      	bx	lr
  ldr   sp, =_estack    		 /* set stack pointer */
 80003b8:	20018000 	.word	0x20018000
  ldr  r3, =_sidata
 80003bc:	08000ea4 	.word	0x08000ea4
  ldr  r0, =_sdata
 80003c0:	20000000 	.word	0x20000000
  ldr  r3, =_edata
 80003c4:	2000000c 	.word	0x2000000c
  ldr  r2, =_sbss
 80003c8:	2000000c 	.word	0x2000000c
  ldr  r3, = _ebss
 80003cc:	2000006c 	.word	0x2000006c

080003d0 <ADC_IRQHandler>:
 * @retval None       
*/
    .section  .text.Default_Handler,"ax",%progbits
Default_Handler:
Infinite_Loop:
  b  Infinite_Loop
 80003d0:	e7fe      	b.n	80003d0 <ADC_IRQHandler>
	...

080003d4 <HAL_Init>:
  *         need to ensure that the SysTick time base is always set to 1 millisecond
  *         to have correct HAL operation.
  * @retval HAL status
  */
HAL_StatusTypeDef HAL_Init(void)
{
 80003d4:	b580      	push	{r7, lr}
 80003d6:	af00      	add	r7, sp, #0
  /* Configure Flash prefetch, Instruction cache, Data cache */ 
#if (INSTRUCTION_CACHE_ENABLE != 0U)
  __HAL_FLASH_INSTRUCTION_CACHE_ENABLE();
 80003d8:	4b0e      	ldr	r3, [pc, #56]	; (8000414 <HAL_Init+0x40>)
 80003da:	681b      	ldr	r3, [r3, #0]
 80003dc:	4a0d      	ldr	r2, [pc, #52]	; (8000414 <HAL_Init+0x40>)
 80003de:	f443 7300 	orr.w	r3, r3, #512	; 0x200
 80003e2:	6013      	str	r3, [r2, #0]
#endif /* INSTRUCTION_CACHE_ENABLE */

#if (DATA_CACHE_ENABLE != 0U)
  __HAL_FLASH_DATA_CACHE_ENABLE();
 80003e4:	4b0b      	ldr	r3, [pc, #44]	; (8000414 <HAL_Init+0x40>)
 80003e6:	681b      	ldr	r3, [r3, #0]
 80003e8:	4a0a      	ldr	r2, [pc, #40]	; (8000414 <HAL_Init+0x40>)
 80003ea:	f443 6380 	orr.w	r3, r3, #1024	; 0x400
 80003ee:	6013      	str	r3, [r2, #0]
#endif /* DATA_CACHE_ENABLE */

#if (PREFETCH_ENABLE != 0U)
  __HAL_FLASH_PREFETCH_BUFFER_ENABLE();
 80003f0:	4b08      	ldr	r3, [pc, #32]	; (8000414 <HAL_Init+0x40>)
 80003f2:	681b      	ldr	r3, [r3, #0]
 80003f4:	4a07      	ldr	r2, [pc, #28]	; (8000414 <HAL_Init+0x40>)
 80003f6:	f443 7380 	orr.w	r3, r3, #256	; 0x100
 80003fa:	6013      	str	r3, [r2, #0]
#endif /* PREFETCH_ENABLE */

  /* Set Interrupt Group Priority */
  HAL_NVIC_SetPriorityGrouping(NVIC_PRIORITYGROUP_4);
 80003fc:	2003      	movs	r0, #3
 80003fe:	f000 f91f 	bl	8000640 <HAL_NVIC_SetPriorityGrouping>

  /* Use systick as time base source and configure 1ms tick (default clock after Reset is HSI) */
  HAL_InitTick(TICK_INT_PRIORITY);
 8000402:	2000      	movs	r0, #0
 8000404:	f000 f808 	bl	8000418 <HAL_InitTick>

  /* Init the low level hardware */
  HAL_MspInit();
 8000408:	f7ff ff62 	bl	80002d0 <HAL_MspInit>

  /* Return function status */
  return HAL_OK;
 800040c:	2300      	movs	r3, #0
}
 800040e:	4618      	mov	r0, r3
 8000410:	bd80      	pop	{r7, pc}
 8000412:	bf00      	nop
 8000414:	40023c00 	.word	0x40023c00

08000418 <HAL_InitTick>:
  *       implementation  in user file.
  * @param TickPriority Tick interrupt priority.
  * @retval HAL status
  */
__weak HAL_StatusTypeDef HAL_InitTick(uint32_t TickPriority)
{
 8000418:	b580      	push	{r7, lr}
 800041a:	b082      	sub	sp, #8
 800041c:	af00      	add	r7, sp, #0
 800041e:	6078      	str	r0, [r7, #4]
  /* Configure the SysTick to have interrupt in 1ms time basis*/
  if (HAL_SYSTICK_Config(SystemCoreClock / (1000U / uwTickFreq)) > 0U)
 8000420:	4b12      	ldr	r3, [pc, #72]	; (800046c <HAL_InitTick+0x54>)
 8000422:	681a      	ldr	r2, [r3, #0]
 8000424:	4b12      	ldr	r3, [pc, #72]	; (8000470 <HAL_InitTick+0x58>)
 8000426:	781b      	ldrb	r3, [r3, #0]
 8000428:	4619      	mov	r1, r3
 800042a:	f44f 737a 	mov.w	r3, #1000	; 0x3e8
 800042e:	fbb3 f3f1 	udiv	r3, r3, r1
 8000432:	fbb2 f3f3 	udiv	r3, r2, r3
 8000436:	4618      	mov	r0, r3
 8000438:	f000 f937 	bl	80006aa <HAL_SYSTICK_Config>
 800043c:	4603      	mov	r3, r0
 800043e:	2b00      	cmp	r3, #0
 8000440:	d001      	beq.n	8000446 <HAL_InitTick+0x2e>
  {
    return HAL_ERROR;
 8000442:	2301      	movs	r3, #1
 8000444:	e00e      	b.n	8000464 <HAL_InitTick+0x4c>
  }

  /* Configure the SysTick IRQ priority */
  if (TickPriority < (1UL << __NVIC_PRIO_BITS))
 8000446:	687b      	ldr	r3, [r7, #4]
 8000448:	2b0f      	cmp	r3, #15
 800044a:	d80a      	bhi.n	8000462 <HAL_InitTick+0x4a>
  {
    HAL_NVIC_SetPriority(SysTick_IRQn, TickPriority, 0U);
 800044c:	2200      	movs	r2, #0
 800044e:	6879      	ldr	r1, [r7, #4]
 8000450:	f04f 30ff 	mov.w	r0, #4294967295	; 0xffffffff
 8000454:	f000 f8ff 	bl	8000656 <HAL_NVIC_SetPriority>
    uwTickPrio = TickPriority;
 8000458:	4a06      	ldr	r2, [pc, #24]	; (8000474 <HAL_InitTick+0x5c>)
 800045a:	687b      	ldr	r3, [r7, #4]
 800045c:	6013      	str	r3, [r2, #0]
  {
    return HAL_ERROR;
  }

  /* Return function status */
  return HAL_OK;
 800045e:	2300      	movs	r3, #0
 8000460:	e000      	b.n	8000464 <HAL_InitTick+0x4c>
    return HAL_ERROR;
 8000462:	2301      	movs	r3, #1
}
 8000464:	4618      	mov	r0, r3
 8000466:	3708      	adds	r7, #8
 8000468:	46bd      	mov	sp, r7
 800046a:	bd80      	pop	{r7, pc}
 800046c:	20000000 	.word	0x20000000
 8000470:	20000008 	.word	0x20000008
 8000474:	20000004 	.word	0x20000004

08000478 <HAL_IncTick>:
 * @note This function is declared as __weak to be overwritten in case of other 
  *      implementations in user file.
  * @retval None
  */
__weak void HAL_IncTick(void)
{
 8000478:	b480      	push	{r7}
 800047a:	af00      	add	r7, sp, #0
  uwTick += uwTickFreq;
 800047c:	4b06      	ldr	r3, [pc, #24]	; (8000498 <HAL_IncTick+0x20>)
 800047e:	781b      	ldrb	r3, [r3, #0]
 8000480:	461a      	mov	r2, r3
 8000482:	4b06      	ldr	r3, [pc, #24]	; (800049c <HAL_IncTick+0x24>)
 8000484:	681b      	ldr	r3, [r3, #0]
 8000486:	4413      	add	r3, r2
 8000488:	4a04      	ldr	r2, [pc, #16]	; (800049c <HAL_IncTick+0x24>)
 800048a:	6013      	str	r3, [r2, #0]
}
 800048c:	bf00      	nop
 800048e:	46bd      	mov	sp, r7
 8000490:	f85d 7b04 	ldr.w	r7, [sp], #4
 8000494:	4770      	bx	lr
 8000496:	bf00      	nop
 8000498:	20000008 	.word	0x20000008
 800049c:	20000068 	.word	0x20000068

080004a0 <__NVIC_SetPriorityGrouping>:
           In case of a conflict between priority grouping and available
           priority bits (__NVIC_PRIO_BITS), the smallest possible priority group is set.
  \param [in]      PriorityGroup  Priority grouping field.
 */
__STATIC_INLINE void __NVIC_SetPriorityGrouping(uint32_t PriorityGroup)
{
 80004a0:	b480      	push	{r7}
 80004a2:	b085      	sub	sp, #20
 80004a4:	af00      	add	r7, sp, #0
 80004a6:	6078      	str	r0, [r7, #4]
  uint32_t reg_value;
  uint32_t PriorityGroupTmp = (PriorityGroup & (uint32_t)0x07UL);             /* only values 0..7 are used          */
 80004a8:	687b      	ldr	r3, [r7, #4]
 80004aa:	f003 0307 	and.w	r3, r3, #7
 80004ae:	60fb      	str	r3, [r7, #12]

  reg_value  =  SCB->AIRCR;                                                   /* read old register configuration    */
 80004b0:	4b0c      	ldr	r3, [pc, #48]	; (80004e4 <__NVIC_SetPriorityGrouping+0x44>)
 80004b2:	68db      	ldr	r3, [r3, #12]
 80004b4:	60bb      	str	r3, [r7, #8]
  reg_value &= ~((uint32_t)(SCB_AIRCR_VECTKEY_Msk | SCB_AIRCR_PRIGROUP_Msk)); /* clear bits to change               */
 80004b6:	68ba      	ldr	r2, [r7, #8]
 80004b8:	f64f 03ff 	movw	r3, #63743	; 0xf8ff
 80004bc:	4013      	ands	r3, r2
 80004be:	60bb      	str	r3, [r7, #8]
  reg_value  =  (reg_value                                   |
                ((uint32_t)0x5FAUL << SCB_AIRCR_VECTKEY_Pos) |
                (PriorityGroupTmp << SCB_AIRCR_PRIGROUP_Pos)  );              /* Insert write key and priority group */
 80004c0:	68fb      	ldr	r3, [r7, #12]
 80004c2:	021a      	lsls	r2, r3, #8
                ((uint32_t)0x5FAUL << SCB_AIRCR_VECTKEY_Pos) |
 80004c4:	68bb      	ldr	r3, [r7, #8]
 80004c6:	4313      	orrs	r3, r2
  reg_value  =  (reg_value                                   |
 80004c8:	f043 63bf 	orr.w	r3, r3, #100139008	; 0x5f80000
 80004cc:	f443 3300 	orr.w	r3, r3, #131072	; 0x20000
 80004d0:	60bb      	str	r3, [r7, #8]
  SCB->AIRCR =  reg_value;
 80004d2:	4a04      	ldr	r2, [pc, #16]	; (80004e4 <__NVIC_SetPriorityGrouping+0x44>)
 80004d4:	68bb      	ldr	r3, [r7, #8]
 80004d6:	60d3      	str	r3, [r2, #12]
}
 80004d8:	bf00      	nop
 80004da:	3714      	adds	r7, #20
 80004dc:	46bd      	mov	sp, r7
 80004de:	f85d 7b04 	ldr.w	r7, [sp], #4
 80004e2:	4770      	bx	lr
 80004e4:	e000ed00 	.word	0xe000ed00

080004e8 <__NVIC_GetPriorityGrouping>:
  \brief   Get Priority Grouping
  \details Reads the priority grouping field from the NVIC Interrupt Controller.
  \return                Priority grouping field (SCB->AIRCR [10:8] PRIGROUP field).
 */
__STATIC_INLINE uint32_t __NVIC_GetPriorityGrouping(void)
{
 80004e8:	b480      	push	{r7}
 80004ea:	af00      	add	r7, sp, #0
  return ((uint32_t)((SCB->AIRCR & SCB_AIRCR_PRIGROUP_Msk) >> SCB_AIRCR_PRIGROUP_Pos));
 80004ec:	4b04      	ldr	r3, [pc, #16]	; (8000500 <__NVIC_GetPriorityGrouping+0x18>)
 80004ee:	68db      	ldr	r3, [r3, #12]
 80004f0:	0a1b      	lsrs	r3, r3, #8
 80004f2:	f003 0307 	and.w	r3, r3, #7
}
 80004f6:	4618      	mov	r0, r3
 80004f8:	46bd      	mov	sp, r7
 80004fa:	f85d 7b04 	ldr.w	r7, [sp], #4
 80004fe:	4770      	bx	lr
 8000500:	e000ed00 	.word	0xe000ed00

08000504 <__NVIC_EnableIRQ>:
  \details Enables a device specific interrupt in the NVIC interrupt controller.
  \param [in]      IRQn  Device specific interrupt number.
  \note    IRQn must not be negative.
 */
__STATIC_INLINE void __NVIC_EnableIRQ(IRQn_Type IRQn)
{
 8000504:	b480      	push	{r7}
 8000506:	b083      	sub	sp, #12
 8000508:	af00      	add	r7, sp, #0
 800050a:	4603      	mov	r3, r0
 800050c:	71fb      	strb	r3, [r7, #7]
  if ((int32_t)(IRQn) >= 0)
 800050e:	f997 3007 	ldrsb.w	r3, [r7, #7]
 8000512:	2b00      	cmp	r3, #0
 8000514:	db0b      	blt.n	800052e <__NVIC_EnableIRQ+0x2a>
  {
    NVIC->ISER[(((uint32_t)IRQn) >> 5UL)] = (uint32_t)(1UL << (((uint32_t)IRQn) & 0x1FUL));
 8000516:	79fb      	ldrb	r3, [r7, #7]
 8000518:	f003 021f 	and.w	r2, r3, #31
 800051c:	4907      	ldr	r1, [pc, #28]	; (800053c <__NVIC_EnableIRQ+0x38>)
 800051e:	f997 3007 	ldrsb.w	r3, [r7, #7]
 8000522:	095b      	lsrs	r3, r3, #5
 8000524:	2001      	movs	r0, #1
 8000526:	fa00 f202 	lsl.w	r2, r0, r2
 800052a:	f841 2023 	str.w	r2, [r1, r3, lsl #2]
  }
}
 800052e:	bf00      	nop
 8000530:	370c      	adds	r7, #12
 8000532:	46bd      	mov	sp, r7
 8000534:	f85d 7b04 	ldr.w	r7, [sp], #4
 8000538:	4770      	bx	lr
 800053a:	bf00      	nop
 800053c:	e000e100 	.word	0xe000e100

08000540 <__NVIC_SetPriority>:
  \param [in]      IRQn  Interrupt number.
  \param [in]  priority  Priority to set.
  \note    The priority cannot be set for every processor exception.
 */
__STATIC_INLINE void __NVIC_SetPriority(IRQn_Type IRQn, uint32_t priority)
{
 8000540:	b480      	push	{r7}
 8000542:	b083      	sub	sp, #12
 8000544:	af00      	add	r7, sp, #0
 8000546:	4603      	mov	r3, r0
 8000548:	6039      	str	r1, [r7, #0]
 800054a:	71fb      	strb	r3, [r7, #7]
  if ((int32_t)(IRQn) >= 0)
 800054c:	f997 3007 	ldrsb.w	r3, [r7, #7]
 8000550:	2b00      	cmp	r3, #0
 8000552:	db0a      	blt.n	800056a <__NVIC_SetPriority+0x2a>
  {
    NVIC->IP[((uint32_t)IRQn)]               = (uint8_t)((priority << (8U - __NVIC_PRIO_BITS)) & (uint32_t)0xFFUL);
 8000554:	683b      	ldr	r3, [r7, #0]
 8000556:	b2da      	uxtb	r2, r3
 8000558:	490c      	ldr	r1, [pc, #48]	; (800058c <__NVIC_SetPriority+0x4c>)
 800055a:	f997 3007 	ldrsb.w	r3, [r7, #7]
 800055e:	0112      	lsls	r2, r2, #4
 8000560:	b2d2      	uxtb	r2, r2
 8000562:	440b      	add	r3, r1
 8000564:	f883 2300 	strb.w	r2, [r3, #768]	; 0x300
  }
  else
  {
    SCB->SHP[(((uint32_t)IRQn) & 0xFUL)-4UL] = (uint8_t)((priority << (8U - __NVIC_PRIO_BITS)) & (uint32_t)0xFFUL);
  }
}
 8000568:	e00a      	b.n	8000580 <__NVIC_SetPriority+0x40>
    SCB->SHP[(((uint32_t)IRQn) & 0xFUL)-4UL] = (uint8_t)((priority << (8U - __NVIC_PRIO_BITS)) & (uint32_t)0xFFUL);
 800056a:	683b      	ldr	r3, [r7, #0]
 800056c:	b2da      	uxtb	r2, r3
 800056e:	4908      	ldr	r1, [pc, #32]	; (8000590 <__NVIC_SetPriority+0x50>)
 8000570:	79fb      	ldrb	r3, [r7, #7]
 8000572:	f003 030f 	and.w	r3, r3, #15
 8000576:	3b04      	subs	r3, #4
 8000578:	0112      	lsls	r2, r2, #4
 800057a:	b2d2      	uxtb	r2, r2
 800057c:	440b      	add	r3, r1
 800057e:	761a      	strb	r2, [r3, #24]
}
 8000580:	bf00      	nop
 8000582:	370c      	adds	r7, #12
 8000584:	46bd      	mov	sp, r7
 8000586:	f85d 7b04 	ldr.w	r7, [sp], #4
 800058a:	4770      	bx	lr
 800058c:	e000e100 	.word	0xe000e100
 8000590:	e000ed00 	.word	0xe000ed00

08000594 <NVIC_EncodePriority>:
  \param [in]   PreemptPriority  Preemptive priority value (starting from 0).
  \param [in]       SubPriority  Subpriority value (starting from 0).
  \return                        Encoded priority. Value can be used in the function \ref NVIC_SetPriority().
 */
__STATIC_INLINE uint32_t NVIC_EncodePriority (uint32_t PriorityGroup, uint32_t PreemptPriority, uint32_t SubPriority)
{
 8000594:	b480      	push	{r7}
 8000596:	b089      	sub	sp, #36	; 0x24
 8000598:	af00      	add	r7, sp, #0
 800059a:	60f8      	str	r0, [r7, #12]
 800059c:	60b9      	str	r1, [r7, #8]
 800059e:	607a      	str	r2, [r7, #4]
  uint32_t PriorityGroupTmp = (PriorityGroup & (uint32_t)0x07UL);   /* only values 0..7 are used          */
 80005a0:	68fb      	ldr	r3, [r7, #12]
 80005a2:	f003 0307 	and.w	r3, r3, #7
 80005a6:	61fb      	str	r3, [r7, #28]
  uint32_t PreemptPriorityBits;
  uint32_t SubPriorityBits;

  PreemptPriorityBits = ((7UL - PriorityGroupTmp) > (uint32_t)(__NVIC_PRIO_BITS)) ? (uint32_t)(__NVIC_PRIO_BITS) : (uint32_t)(7UL - PriorityGroupTmp);
 80005a8:	69fb      	ldr	r3, [r7, #28]
 80005aa:	f1c3 0307 	rsb	r3, r3, #7
 80005ae:	2b04      	cmp	r3, #4
 80005b0:	bf28      	it	cs
 80005b2:	2304      	movcs	r3, #4
 80005b4:	61bb      	str	r3, [r7, #24]
  SubPriorityBits     = ((PriorityGroupTmp + (uint32_t)(__NVIC_PRIO_BITS)) < (uint32_t)7UL) ? (uint32_t)0UL : (uint32_t)((PriorityGroupTmp - 7UL) + (uint32_t)(__NVIC_PRIO_BITS));
 80005b6:	69fb      	ldr	r3, [r7, #28]
 80005b8:	3304      	adds	r3, #4
 80005ba:	2b06      	cmp	r3, #6
 80005bc:	d902      	bls.n	80005c4 <NVIC_EncodePriority+0x30>
 80005be:	69fb      	ldr	r3, [r7, #28]
 80005c0:	3b03      	subs	r3, #3
 80005c2:	e000      	b.n	80005c6 <NVIC_EncodePriority+0x32>
 80005c4:	2300      	movs	r3, #0
 80005c6:	617b      	str	r3, [r7, #20]

  return (
           ((PreemptPriority & (uint32_t)((1UL << (PreemptPriorityBits)) - 1UL)) << SubPriorityBits) |
 80005c8:	f04f 32ff 	mov.w	r2, #4294967295	; 0xffffffff
 80005cc:	69bb      	ldr	r3, [r7, #24]
 80005ce:	fa02 f303 	lsl.w	r3, r2, r3
 80005d2:	43da      	mvns	r2, r3
 80005d4:	68bb      	ldr	r3, [r7, #8]
 80005d6:	401a      	ands	r2, r3
 80005d8:	697b      	ldr	r3, [r7, #20]
 80005da:	409a      	lsls	r2, r3
           ((SubPriority     & (uint32_t)((1UL << (SubPriorityBits    )) - 1UL)))
 80005dc:	f04f 31ff 	mov.w	r1, #4294967295	; 0xffffffff
 80005e0:	697b      	ldr	r3, [r7, #20]
 80005e2:	fa01 f303 	lsl.w	r3, r1, r3
 80005e6:	43d9      	mvns	r1, r3
 80005e8:	687b      	ldr	r3, [r7, #4]
 80005ea:	400b      	ands	r3, r1
           ((PreemptPriority & (uint32_t)((1UL << (PreemptPriorityBits)) - 1UL)) << SubPriorityBits) |
 80005ec:	4313      	orrs	r3, r2
         );
}
 80005ee:	4618      	mov	r0, r3
 80005f0:	3724      	adds	r7, #36	; 0x24
 80005f2:	46bd      	mov	sp, r7
 80005f4:	f85d 7b04 	ldr.w	r7, [sp], #4
 80005f8:	4770      	bx	lr
	...

080005fc <SysTick_Config>:
  \note    When the variable <b>__Vendor_SysTickConfig</b> is set to 1, then the
           function <b>SysTick_Config</b> is not included. In this case, the file <b><i>device</i>.h</b>
           must contain a vendor-specific implementation of this function.
 */
__STATIC_INLINE uint32_t SysTick_Config(uint32_t ticks)
{
 80005fc:	b580      	push	{r7, lr}
 80005fe:	b082      	sub	sp, #8
 8000600:	af00      	add	r7, sp, #0
 8000602:	6078      	str	r0, [r7, #4]
  if ((ticks - 1UL) > SysTick_LOAD_RELOAD_Msk)
 8000604:	687b      	ldr	r3, [r7, #4]
 8000606:	3b01      	subs	r3, #1
 8000608:	f1b3 7f80 	cmp.w	r3, #16777216	; 0x1000000
 800060c:	d301      	bcc.n	8000612 <SysTick_Config+0x16>
  {
    return (1UL);                                                   /* Reload value impossible */
 800060e:	2301      	movs	r3, #1
 8000610:	e00f      	b.n	8000632 <SysTick_Config+0x36>
  }

  SysTick->LOAD  = (uint32_t)(ticks - 1UL);                         /* set reload register */
 8000612:	4a0a      	ldr	r2, [pc, #40]	; (800063c <SysTick_Config+0x40>)
 8000614:	687b      	ldr	r3, [r7, #4]
 8000616:	3b01      	subs	r3, #1
 8000618:	6053      	str	r3, [r2, #4]
  NVIC_SetPriority (SysTick_IRQn, (1UL << __NVIC_PRIO_BITS) - 1UL); /* set Priority for Systick Interrupt */
 800061a:	210f      	movs	r1, #15
 800061c:	f04f 30ff 	mov.w	r0, #4294967295	; 0xffffffff
 8000620:	f7ff ff8e 	bl	8000540 <__NVIC_SetPriority>
  SysTick->VAL   = 0UL;                                             /* Load the SysTick Counter Value */
 8000624:	4b05      	ldr	r3, [pc, #20]	; (800063c <SysTick_Config+0x40>)
 8000626:	2200      	movs	r2, #0
 8000628:	609a      	str	r2, [r3, #8]
  SysTick->CTRL  = SysTick_CTRL_CLKSOURCE_Msk |
 800062a:	4b04      	ldr	r3, [pc, #16]	; (800063c <SysTick_Config+0x40>)
 800062c:	2207      	movs	r2, #7
 800062e:	601a      	str	r2, [r3, #0]
                   SysTick_CTRL_TICKINT_Msk   |
                   SysTick_CTRL_ENABLE_Msk;                         /* Enable SysTick IRQ and SysTick Timer */
  return (0UL);                                                     /* Function successful */
 8000630:	2300      	movs	r3, #0
}
 8000632:	4618      	mov	r0, r3
 8000634:	3708      	adds	r7, #8
 8000636:	46bd      	mov	sp, r7
 8000638:	bd80      	pop	{r7, pc}
 800063a:	bf00      	nop
 800063c:	e000e010 	.word	0xe000e010

08000640 <HAL_NVIC_SetPriorityGrouping>:
  * @note   When the NVIC_PriorityGroup_0 is selected, IRQ preemption is no more possible. 
  *         The pending IRQ priority will be managed only by the subpriority. 
  * @retval None
  */
void HAL_NVIC_SetPriorityGrouping(uint32_t PriorityGroup)
{
 8000640:	b580      	push	{r7, lr}
 8000642:	b082      	sub	sp, #8
 8000644:	af00      	add	r7, sp, #0
 8000646:	6078      	str	r0, [r7, #4]
  /* Check the parameters */
  assert_param(IS_NVIC_PRIORITY_GROUP(PriorityGroup));
  
  /* Set the PRIGROUP[10:8] bits according to the PriorityGroup parameter value */
  NVIC_SetPriorityGrouping(PriorityGroup);
 8000648:	6878      	ldr	r0, [r7, #4]
 800064a:	f7ff ff29 	bl	80004a0 <__NVIC_SetPriorityGrouping>
}
 800064e:	bf00      	nop
 8000650:	3708      	adds	r7, #8
 8000652:	46bd      	mov	sp, r7
 8000654:	bd80      	pop	{r7, pc}

08000656 <HAL_NVIC_SetPriority>:
  *         This parameter can be a value between 0 and 15
  *         A lower priority value indicates a higher priority.          
  * @retval None
  */
void HAL_NVIC_SetPriority(IRQn_Type IRQn, uint32_t PreemptPriority, uint32_t SubPriority)
{ 
 8000656:	b580      	push	{r7, lr}
 8000658:	b086      	sub	sp, #24
 800065a:	af00      	add	r7, sp, #0
 800065c:	4603      	mov	r3, r0
 800065e:	60b9      	str	r1, [r7, #8]
 8000660:	607a      	str	r2, [r7, #4]
 8000662:	73fb      	strb	r3, [r7, #15]
  uint32_t prioritygroup = 0x00U;
 8000664:	2300      	movs	r3, #0
 8000666:	617b      	str	r3, [r7, #20]
  
  /* Check the parameters */
  assert_param(IS_NVIC_SUB_PRIORITY(SubPriority));
  assert_param(IS_NVIC_PREEMPTION_PRIORITY(PreemptPriority));
  
  prioritygroup = NVIC_GetPriorityGrouping();
 8000668:	f7ff ff3e 	bl	80004e8 <__NVIC_GetPriorityGrouping>
 800066c:	6178      	str	r0, [r7, #20]
  
  NVIC_SetPriority(IRQn, NVIC_EncodePriority(prioritygroup, PreemptPriority, SubPriority));
 800066e:	687a      	ldr	r2, [r7, #4]
 8000670:	68b9      	ldr	r1, [r7, #8]
 8000672:	6978      	ldr	r0, [r7, #20]
 8000674:	f7ff ff8e 	bl	8000594 <NVIC_EncodePriority>
 8000678:	4602      	mov	r2, r0
 800067a:	f997 300f 	ldrsb.w	r3, [r7, #15]
 800067e:	4611      	mov	r1, r2
 8000680:	4618      	mov	r0, r3
 8000682:	f7ff ff5d 	bl	8000540 <__NVIC_SetPriority>
}
 8000686:	bf00      	nop
 8000688:	3718      	adds	r7, #24
 800068a:	46bd      	mov	sp, r7
 800068c:	bd80      	pop	{r7, pc}

0800068e <HAL_NVIC_EnableIRQ>:
  *         This parameter can be an enumerator of IRQn_Type enumeration
  *         (For the complete STM32 Devices IRQ Channels list, please refer to the appropriate CMSIS device file (stm32f4xxxx.h))
  * @retval None
  */
void HAL_NVIC_EnableIRQ(IRQn_Type IRQn)
{
 800068e:	b580      	push	{r7, lr}
 8000690:	b082      	sub	sp, #8
 8000692:	af00      	add	r7, sp, #0
 8000694:	4603      	mov	r3, r0
 8000696:	71fb      	strb	r3, [r7, #7]
  /* Check the parameters */
  assert_param(IS_NVIC_DEVICE_IRQ(IRQn));
  
  /* Enable interrupt */
  NVIC_EnableIRQ(IRQn);
 8000698:	f997 3007 	ldrsb.w	r3, [r7, #7]
 800069c:	4618      	mov	r0, r3
 800069e:	f7ff ff31 	bl	8000504 <__NVIC_EnableIRQ>
}
 80006a2:	bf00      	nop
 80006a4:	3708      	adds	r7, #8
 80006a6:	46bd      	mov	sp, r7
 80006a8:	bd80      	pop	{r7, pc}

080006aa <HAL_SYSTICK_Config>:
  * @param  TicksNumb Specifies the ticks Number of ticks between two interrupts.
  * @retval status:  - 0  Function succeeded.
  *                  - 1  Function failed.
  */
uint32_t HAL_SYSTICK_Config(uint32_t TicksNumb)
{
 80006aa:	b580      	push	{r7, lr}
 80006ac:	b082      	sub	sp, #8
 80006ae:	af00      	add	r7, sp, #0
 80006b0:	6078      	str	r0, [r7, #4]
   return SysTick_Config(TicksNumb);
 80006b2:	6878      	ldr	r0, [r7, #4]
 80006b4:	f7ff ffa2 	bl	80005fc <SysTick_Config>
 80006b8:	4603      	mov	r3, r0
}
 80006ba:	4618      	mov	r0, r3
 80006bc:	3708      	adds	r7, #8
 80006be:	46bd      	mov	sp, r7
 80006c0:	bd80      	pop	{r7, pc}

080006c2 <HAL_SYSTICK_IRQHandler>:
/**
  * @brief  This function handles SYSTICK interrupt request.
  * @retval None
  */
void HAL_SYSTICK_IRQHandler(void)
{
 80006c2:	b580      	push	{r7, lr}
 80006c4:	af00      	add	r7, sp, #0
  HAL_SYSTICK_Callback();
 80006c6:	f000 f802 	bl	80006ce <HAL_SYSTICK_Callback>
}
 80006ca:	bf00      	nop
 80006cc:	bd80      	pop	{r7, pc}

080006ce <HAL_SYSTICK_Callback>:
/**
  * @brief  SYSTICK callback.
  * @retval None
  */
__weak void HAL_SYSTICK_Callback(void)
{
 80006ce:	b480      	push	{r7}
 80006d0:	af00      	add	r7, sp, #0
  /* NOTE : This function Should not be modified, when the callback is needed,
            the HAL_SYSTICK_Callback could be implemented in the user file
   */
}
 80006d2:	bf00      	nop
 80006d4:	46bd      	mov	sp, r7
 80006d6:	f85d 7b04 	ldr.w	r7, [sp], #4
 80006da:	4770      	bx	lr

080006dc <HAL_GPIO_Init>:
  * @param  GPIO_Init pointer to a GPIO_InitTypeDef structure that contains
  *         the configuration information for the specified GPIO peripheral.
  * @retval None
  */
void HAL_GPIO_Init(GPIO_TypeDef  *GPIOx, GPIO_InitTypeDef *GPIO_Init)
{
 80006dc:	b480      	push	{r7}
 80006de:	b089      	sub	sp, #36	; 0x24
 80006e0:	af00      	add	r7, sp, #0
 80006e2:	6078      	str	r0, [r7, #4]
 80006e4:	6039      	str	r1, [r7, #0]
  uint32_t position;
  uint32_t ioposition = 0x00U;
 80006e6:	2300      	movs	r3, #0
 80006e8:	617b      	str	r3, [r7, #20]
  uint32_t iocurrent = 0x00U;
 80006ea:	2300      	movs	r3, #0
 80006ec:	613b      	str	r3, [r7, #16]
  uint32_t temp = 0x00U;
 80006ee:	2300      	movs	r3, #0
 80006f0:	61bb      	str	r3, [r7, #24]
  assert_param(IS_GPIO_PIN(GPIO_Init->Pin));
  assert_param(IS_GPIO_MODE(GPIO_Init->Mode));
  assert_param(IS_GPIO_PULL(GPIO_Init->Pull));

  /* Configure the port pins */
  for(position = 0U; position < GPIO_NUMBER; position++)
 80006f2:	2300      	movs	r3, #0
 80006f4:	61fb      	str	r3, [r7, #28]
 80006f6:	e159      	b.n	80009ac <HAL_GPIO_Init+0x2d0>
  {
    /* Get the IO position */
    ioposition = 0x01U << position;
 80006f8:	2201      	movs	r2, #1
 80006fa:	69fb      	ldr	r3, [r7, #28]
 80006fc:	fa02 f303 	lsl.w	r3, r2, r3
 8000700:	617b      	str	r3, [r7, #20]
    /* Get the current IO position */
    iocurrent = (uint32_t)(GPIO_Init->Pin) & ioposition;
 8000702:	683b      	ldr	r3, [r7, #0]
 8000704:	681b      	ldr	r3, [r3, #0]
 8000706:	697a      	ldr	r2, [r7, #20]
 8000708:	4013      	ands	r3, r2
 800070a:	613b      	str	r3, [r7, #16]

    if(iocurrent == ioposition)
 800070c:	693a      	ldr	r2, [r7, #16]
 800070e:	697b      	ldr	r3, [r7, #20]
 8000710:	429a      	cmp	r2, r3
 8000712:	f040 8148 	bne.w	80009a6 <HAL_GPIO_Init+0x2ca>
    {
      /*--------------------- GPIO Mode Configuration ------------------------*/
      /* In case of Output or Alternate function mode selection */
      if((GPIO_Init->Mode == GPIO_MODE_OUTPUT_PP) || (GPIO_Init->Mode == GPIO_MODE_AF_PP) ||
 8000716:	683b      	ldr	r3, [r7, #0]
 8000718:	685b      	ldr	r3, [r3, #4]
 800071a:	2b01      	cmp	r3, #1
 800071c:	d00b      	beq.n	8000736 <HAL_GPIO_Init+0x5a>
 800071e:	683b      	ldr	r3, [r7, #0]
 8000720:	685b      	ldr	r3, [r3, #4]
 8000722:	2b02      	cmp	r3, #2
 8000724:	d007      	beq.n	8000736 <HAL_GPIO_Init+0x5a>
         (GPIO_Init->Mode == GPIO_MODE_OUTPUT_OD) || (GPIO_Init->Mode == GPIO_MODE_AF_OD))
 8000726:	683b      	ldr	r3, [r7, #0]
 8000728:	685b      	ldr	r3, [r3, #4]
      if((GPIO_Init->Mode == GPIO_MODE_OUTPUT_PP) || (GPIO_Init->Mode == GPIO_MODE_AF_PP) ||
 800072a:	2b11      	cmp	r3, #17
 800072c:	d003      	beq.n	8000736 <HAL_GPIO_Init+0x5a>
         (GPIO_Init->Mode == GPIO_MODE_OUTPUT_OD) || (GPIO_Init->Mode == GPIO_MODE_AF_OD))
 800072e:	683b      	ldr	r3, [r7, #0]
 8000730:	685b      	ldr	r3, [r3, #4]
 8000732:	2b12      	cmp	r3, #18
 8000734:	d130      	bne.n	8000798 <HAL_GPIO_Init+0xbc>
      {
        /* Check the Speed parameter */
        assert_param(IS_GPIO_SPEED(GPIO_Init->Speed));
        /* Configure the IO Speed */
        temp = GPIOx->OSPEEDR; 
 8000736:	687b      	ldr	r3, [r7, #4]
 8000738:	689b      	ldr	r3, [r3, #8]
 800073a:	61bb      	str	r3, [r7, #24]
        temp &= ~(GPIO_OSPEEDER_OSPEEDR0 << (position * 2U));
 800073c:	69fb      	ldr	r3, [r7, #28]
 800073e:	005b      	lsls	r3, r3, #1
 8000740:	2203      	movs	r2, #3
 8000742:	fa02 f303 	lsl.w	r3, r2, r3
 8000746:	43db      	mvns	r3, r3
 8000748:	69ba      	ldr	r2, [r7, #24]
 800074a:	4013      	ands	r3, r2
 800074c:	61bb      	str	r3, [r7, #24]
        temp |= (GPIO_Init->Speed << (position * 2U));
 800074e:	683b      	ldr	r3, [r7, #0]
 8000750:	68da      	ldr	r2, [r3, #12]
 8000752:	69fb      	ldr	r3, [r7, #28]
 8000754:	005b      	lsls	r3, r3, #1
 8000756:	fa02 f303 	lsl.w	r3, r2, r3
 800075a:	69ba      	ldr	r2, [r7, #24]
 800075c:	4313      	orrs	r3, r2
 800075e:	61bb      	str	r3, [r7, #24]
        GPIOx->OSPEEDR = temp;
 8000760:	687b      	ldr	r3, [r7, #4]
 8000762:	69ba      	ldr	r2, [r7, #24]
 8000764:	609a      	str	r2, [r3, #8]

        /* Configure the IO Output Type */
        temp = GPIOx->OTYPER;
 8000766:	687b      	ldr	r3, [r7, #4]
 8000768:	685b      	ldr	r3, [r3, #4]
 800076a:	61bb      	str	r3, [r7, #24]
        temp &= ~(GPIO_OTYPER_OT_0 << position) ;
 800076c:	2201      	movs	r2, #1
 800076e:	69fb      	ldr	r3, [r7, #28]
 8000770:	fa02 f303 	lsl.w	r3, r2, r3
 8000774:	43db      	mvns	r3, r3
 8000776:	69ba      	ldr	r2, [r7, #24]
 8000778:	4013      	ands	r3, r2
 800077a:	61bb      	str	r3, [r7, #24]
        temp |= (((GPIO_Init->Mode & GPIO_OUTPUT_TYPE) >> 4U) << position);
 800077c:	683b      	ldr	r3, [r7, #0]
 800077e:	685b      	ldr	r3, [r3, #4]
 8000780:	091b      	lsrs	r3, r3, #4
 8000782:	f003 0201 	and.w	r2, r3, #1
 8000786:	69fb      	ldr	r3, [r7, #28]
 8000788:	fa02 f303 	lsl.w	r3, r2, r3
 800078c:	69ba      	ldr	r2, [r7, #24]
 800078e:	4313      	orrs	r3, r2
 8000790:	61bb      	str	r3, [r7, #24]
        GPIOx->OTYPER = temp;
 8000792:	687b      	ldr	r3, [r7, #4]
 8000794:	69ba      	ldr	r2, [r7, #24]
 8000796:	605a      	str	r2, [r3, #4]
       }

      /* Activate the Pull-up or Pull down resistor for the current IO */
      temp = GPIOx->PUPDR;
 8000798:	687b      	ldr	r3, [r7, #4]
 800079a:	68db      	ldr	r3, [r3, #12]
 800079c:	61bb      	str	r3, [r7, #24]
      temp &= ~(GPIO_PUPDR_PUPDR0 << (position * 2U));
 800079e:	69fb      	ldr	r3, [r7, #28]
 80007a0:	005b      	lsls	r3, r3, #1
 80007a2:	2203      	movs	r2, #3
 80007a4:	fa02 f303 	lsl.w	r3, r2, r3
 80007a8:	43db      	mvns	r3, r3
 80007aa:	69ba      	ldr	r2, [r7, #24]
 80007ac:	4013      	ands	r3, r2
 80007ae:	61bb      	str	r3, [r7, #24]
      temp |= ((GPIO_Init->Pull) << (position * 2U));
 80007b0:	683b      	ldr	r3, [r7, #0]
 80007b2:	689a      	ldr	r2, [r3, #8]
 80007b4:	69fb      	ldr	r3, [r7, #28]
 80007b6:	005b      	lsls	r3, r3, #1
 80007b8:	fa02 f303 	lsl.w	r3, r2, r3
 80007bc:	69ba      	ldr	r2, [r7, #24]
 80007be:	4313      	orrs	r3, r2
 80007c0:	61bb      	str	r3, [r7, #24]
      GPIOx->PUPDR = temp;
 80007c2:	687b      	ldr	r3, [r7, #4]
 80007c4:	69ba      	ldr	r2, [r7, #24]
 80007c6:	60da      	str	r2, [r3, #12]

      /* In case of Alternate function mode selection */
      if((GPIO_Init->Mode == GPIO_MODE_AF_PP) || (GPIO_Init->Mode == GPIO_MODE_AF_OD))
 80007c8:	683b      	ldr	r3, [r7, #0]
 80007ca:	685b      	ldr	r3, [r3, #4]
 80007cc:	2b02      	cmp	r3, #2
 80007ce:	d003      	beq.n	80007d8 <HAL_GPIO_Init+0xfc>
 80007d0:	683b      	ldr	r3, [r7, #0]
 80007d2:	685b      	ldr	r3, [r3, #4]
 80007d4:	2b12      	cmp	r3, #18
 80007d6:	d123      	bne.n	8000820 <HAL_GPIO_Init+0x144>
      {
        /* Check the Alternate function parameter */
        assert_param(IS_GPIO_AF(GPIO_Init->Alternate));
        /* Configure Alternate function mapped with the current IO */
        temp = GPIOx->AFR[position >> 3U];
 80007d8:	69fb      	ldr	r3, [r7, #28]
 80007da:	08da      	lsrs	r2, r3, #3
 80007dc:	687b      	ldr	r3, [r7, #4]
 80007de:	3208      	adds	r2, #8
 80007e0:	f853 3022 	ldr.w	r3, [r3, r2, lsl #2]
 80007e4:	61bb      	str	r3, [r7, #24]
        temp &= ~(0xFU << ((uint32_t)(position & 0x07U) * 4U)) ;
 80007e6:	69fb      	ldr	r3, [r7, #28]
 80007e8:	f003 0307 	and.w	r3, r3, #7
 80007ec:	009b      	lsls	r3, r3, #2
 80007ee:	220f      	movs	r2, #15
 80007f0:	fa02 f303 	lsl.w	r3, r2, r3
 80007f4:	43db      	mvns	r3, r3
 80007f6:	69ba      	ldr	r2, [r7, #24]
 80007f8:	4013      	ands	r3, r2
 80007fa:	61bb      	str	r3, [r7, #24]
        temp |= ((uint32_t)(GPIO_Init->Alternate) << (((uint32_t)position & 0x07U) * 4U));
 80007fc:	683b      	ldr	r3, [r7, #0]
 80007fe:	691a      	ldr	r2, [r3, #16]
 8000800:	69fb      	ldr	r3, [r7, #28]
 8000802:	f003 0307 	and.w	r3, r3, #7
 8000806:	009b      	lsls	r3, r3, #2
 8000808:	fa02 f303 	lsl.w	r3, r2, r3
 800080c:	69ba      	ldr	r2, [r7, #24]
 800080e:	4313      	orrs	r3, r2
 8000810:	61bb      	str	r3, [r7, #24]
        GPIOx->AFR[position >> 3U] = temp;
 8000812:	69fb      	ldr	r3, [r7, #28]
 8000814:	08da      	lsrs	r2, r3, #3
 8000816:	687b      	ldr	r3, [r7, #4]
 8000818:	3208      	adds	r2, #8
 800081a:	69b9      	ldr	r1, [r7, #24]
 800081c:	f843 1022 	str.w	r1, [r3, r2, lsl #2]
      }

      /* Configure IO Direction mode (Input, Output, Alternate or Analog) */
      temp = GPIOx->MODER;
 8000820:	687b      	ldr	r3, [r7, #4]
 8000822:	681b      	ldr	r3, [r3, #0]
 8000824:	61bb      	str	r3, [r7, #24]
      temp &= ~(GPIO_MODER_MODER0 << (position * 2U));
 8000826:	69fb      	ldr	r3, [r7, #28]
 8000828:	005b      	lsls	r3, r3, #1
 800082a:	2203      	movs	r2, #3
 800082c:	fa02 f303 	lsl.w	r3, r2, r3
 8000830:	43db      	mvns	r3, r3
 8000832:	69ba      	ldr	r2, [r7, #24]
 8000834:	4013      	ands	r3, r2
 8000836:	61bb      	str	r3, [r7, #24]
      temp |= ((GPIO_Init->Mode & GPIO_MODE) << (position * 2U));
 8000838:	683b      	ldr	r3, [r7, #0]
 800083a:	685b      	ldr	r3, [r3, #4]
 800083c:	f003 0203 	and.w	r2, r3, #3
 8000840:	69fb      	ldr	r3, [r7, #28]
 8000842:	005b      	lsls	r3, r3, #1
 8000844:	fa02 f303 	lsl.w	r3, r2, r3
 8000848:	69ba      	ldr	r2, [r7, #24]
 800084a:	4313      	orrs	r3, r2
 800084c:	61bb      	str	r3, [r7, #24]
      GPIOx->MODER = temp;
 800084e:	687b      	ldr	r3, [r7, #4]
 8000850:	69ba      	ldr	r2, [r7, #24]
 8000852:	601a      	str	r2, [r3, #0]

      /*--------------------- EXTI Mode Configuration ------------------------*/
      /* Configure the External Interrupt or event for the current IO */
      if((GPIO_Init->Mode & EXTI_MODE) == EXTI_MODE)
 8000854:	683b      	ldr	r3, [r7, #0]
 8000856:	685b      	ldr	r3, [r3, #4]
 8000858:	f003 5380 	and.w	r3, r3, #268435456	; 0x10000000
 800085c:	2b00      	cmp	r3, #0
 800085e:	f000 80a2 	beq.w	80009a6 <HAL_GPIO_Init+0x2ca>
      {
        /* Enable SYSCFG Clock */
        __HAL_RCC_SYSCFG_CLK_ENABLE();
 8000862:	2300      	movs	r3, #0
 8000864:	60fb      	str	r3, [r7, #12]
 8000866:	4b56      	ldr	r3, [pc, #344]	; (80009c0 <HAL_GPIO_Init+0x2e4>)
 8000868:	6c5b      	ldr	r3, [r3, #68]	; 0x44
 800086a:	4a55      	ldr	r2, [pc, #340]	; (80009c0 <HAL_GPIO_Init+0x2e4>)
 800086c:	f443 4380 	orr.w	r3, r3, #16384	; 0x4000
 8000870:	6453      	str	r3, [r2, #68]	; 0x44
 8000872:	4b53      	ldr	r3, [pc, #332]	; (80009c0 <HAL_GPIO_Init+0x2e4>)
 8000874:	6c5b      	ldr	r3, [r3, #68]	; 0x44
 8000876:	f403 4380 	and.w	r3, r3, #16384	; 0x4000
 800087a:	60fb      	str	r3, [r7, #12]
 800087c:	68fb      	ldr	r3, [r7, #12]

        temp = SYSCFG->EXTICR[position >> 2U];
 800087e:	4a51      	ldr	r2, [pc, #324]	; (80009c4 <HAL_GPIO_Init+0x2e8>)
 8000880:	69fb      	ldr	r3, [r7, #28]
 8000882:	089b      	lsrs	r3, r3, #2
 8000884:	3302      	adds	r3, #2
 8000886:	f852 3023 	ldr.w	r3, [r2, r3, lsl #2]
 800088a:	61bb      	str	r3, [r7, #24]
        temp &= ~(0x0FU << (4U * (position & 0x03U)));
 800088c:	69fb      	ldr	r3, [r7, #28]
 800088e:	f003 0303 	and.w	r3, r3, #3
 8000892:	009b      	lsls	r3, r3, #2
 8000894:	220f      	movs	r2, #15
 8000896:	fa02 f303 	lsl.w	r3, r2, r3
 800089a:	43db      	mvns	r3, r3
 800089c:	69ba      	ldr	r2, [r7, #24]
 800089e:	4013      	ands	r3, r2
 80008a0:	61bb      	str	r3, [r7, #24]
        temp |= ((uint32_t)(GPIO_GET_INDEX(GPIOx)) << (4U * (position & 0x03U)));
 80008a2:	687b      	ldr	r3, [r7, #4]
 80008a4:	4a48      	ldr	r2, [pc, #288]	; (80009c8 <HAL_GPIO_Init+0x2ec>)
 80008a6:	4293      	cmp	r3, r2
 80008a8:	d019      	beq.n	80008de <HAL_GPIO_Init+0x202>
 80008aa:	687b      	ldr	r3, [r7, #4]
 80008ac:	4a47      	ldr	r2, [pc, #284]	; (80009cc <HAL_GPIO_Init+0x2f0>)
 80008ae:	4293      	cmp	r3, r2
 80008b0:	d013      	beq.n	80008da <HAL_GPIO_Init+0x1fe>
 80008b2:	687b      	ldr	r3, [r7, #4]
 80008b4:	4a46      	ldr	r2, [pc, #280]	; (80009d0 <HAL_GPIO_Init+0x2f4>)
 80008b6:	4293      	cmp	r3, r2
 80008b8:	d00d      	beq.n	80008d6 <HAL_GPIO_Init+0x1fa>
 80008ba:	687b      	ldr	r3, [r7, #4]
 80008bc:	4a45      	ldr	r2, [pc, #276]	; (80009d4 <HAL_GPIO_Init+0x2f8>)
 80008be:	4293      	cmp	r3, r2
 80008c0:	d007      	beq.n	80008d2 <HAL_GPIO_Init+0x1f6>
 80008c2:	687b      	ldr	r3, [r7, #4]
 80008c4:	4a44      	ldr	r2, [pc, #272]	; (80009d8 <HAL_GPIO_Init+0x2fc>)
 80008c6:	4293      	cmp	r3, r2
 80008c8:	d101      	bne.n	80008ce <HAL_GPIO_Init+0x1f2>
 80008ca:	2304      	movs	r3, #4
 80008cc:	e008      	b.n	80008e0 <HAL_GPIO_Init+0x204>
 80008ce:	2307      	movs	r3, #7
 80008d0:	e006      	b.n	80008e0 <HAL_GPIO_Init+0x204>
 80008d2:	2303      	movs	r3, #3
 80008d4:	e004      	b.n	80008e0 <HAL_GPIO_Init+0x204>
 80008d6:	2302      	movs	r3, #2
 80008d8:	e002      	b.n	80008e0 <HAL_GPIO_Init+0x204>
 80008da:	2301      	movs	r3, #1
 80008dc:	e000      	b.n	80008e0 <HAL_GPIO_Init+0x204>
 80008de:	2300      	movs	r3, #0
 80008e0:	69fa      	ldr	r2, [r7, #28]
 80008e2:	f002 0203 	and.w	r2, r2, #3
 80008e6:	0092      	lsls	r2, r2, #2
 80008e8:	4093      	lsls	r3, r2
 80008ea:	69ba      	ldr	r2, [r7, #24]
 80008ec:	4313      	orrs	r3, r2
 80008ee:	61bb      	str	r3, [r7, #24]
        SYSCFG->EXTICR[position >> 2U] = temp;
 80008f0:	4934      	ldr	r1, [pc, #208]	; (80009c4 <HAL_GPIO_Init+0x2e8>)
 80008f2:	69fb      	ldr	r3, [r7, #28]
 80008f4:	089b      	lsrs	r3, r3, #2
 80008f6:	3302      	adds	r3, #2
 80008f8:	69ba      	ldr	r2, [r7, #24]
 80008fa:	f841 2023 	str.w	r2, [r1, r3, lsl #2]

        /* Clear EXTI line configuration */
        temp = EXTI->IMR;
 80008fe:	4b37      	ldr	r3, [pc, #220]	; (80009dc <HAL_GPIO_Init+0x300>)
 8000900:	681b      	ldr	r3, [r3, #0]
 8000902:	61bb      	str	r3, [r7, #24]
        temp &= ~((uint32_t)iocurrent);
 8000904:	693b      	ldr	r3, [r7, #16]
 8000906:	43db      	mvns	r3, r3
 8000908:	69ba      	ldr	r2, [r7, #24]
 800090a:	4013      	ands	r3, r2
 800090c:	61bb      	str	r3, [r7, #24]
        if((GPIO_Init->Mode & GPIO_MODE_IT) == GPIO_MODE_IT)
 800090e:	683b      	ldr	r3, [r7, #0]
 8000910:	685b      	ldr	r3, [r3, #4]
 8000912:	f403 3380 	and.w	r3, r3, #65536	; 0x10000
 8000916:	2b00      	cmp	r3, #0
 8000918:	d003      	beq.n	8000922 <HAL_GPIO_Init+0x246>
        {
          temp |= iocurrent;
 800091a:	69ba      	ldr	r2, [r7, #24]
 800091c:	693b      	ldr	r3, [r7, #16]
 800091e:	4313      	orrs	r3, r2
 8000920:	61bb      	str	r3, [r7, #24]
        }
        EXTI->IMR = temp;
 8000922:	4a2e      	ldr	r2, [pc, #184]	; (80009dc <HAL_GPIO_Init+0x300>)
 8000924:	69bb      	ldr	r3, [r7, #24]
 8000926:	6013      	str	r3, [r2, #0]

        temp = EXTI->EMR;
 8000928:	4b2c      	ldr	r3, [pc, #176]	; (80009dc <HAL_GPIO_Init+0x300>)
 800092a:	685b      	ldr	r3, [r3, #4]
 800092c:	61bb      	str	r3, [r7, #24]
        temp &= ~((uint32_t)iocurrent);
 800092e:	693b      	ldr	r3, [r7, #16]
 8000930:	43db      	mvns	r3, r3
 8000932:	69ba      	ldr	r2, [r7, #24]
 8000934:	4013      	ands	r3, r2
 8000936:	61bb      	str	r3, [r7, #24]
        if((GPIO_Init->Mode & GPIO_MODE_EVT) == GPIO_MODE_EVT)
 8000938:	683b      	ldr	r3, [r7, #0]
 800093a:	685b      	ldr	r3, [r3, #4]
 800093c:	f403 3300 	and.w	r3, r3, #131072	; 0x20000
 8000940:	2b00      	cmp	r3, #0
 8000942:	d003      	beq.n	800094c <HAL_GPIO_Init+0x270>
        {
          temp |= iocurrent;
 8000944:	69ba      	ldr	r2, [r7, #24]
 8000946:	693b      	ldr	r3, [r7, #16]
 8000948:	4313      	orrs	r3, r2
 800094a:	61bb      	str	r3, [r7, #24]
        }
        EXTI->EMR = temp;
 800094c:	4a23      	ldr	r2, [pc, #140]	; (80009dc <HAL_GPIO_Init+0x300>)
 800094e:	69bb      	ldr	r3, [r7, #24]
 8000950:	6053      	str	r3, [r2, #4]

        /* Clear Rising Falling edge configuration */
        temp = EXTI->RTSR;
 8000952:	4b22      	ldr	r3, [pc, #136]	; (80009dc <HAL_GPIO_Init+0x300>)
 8000954:	689b      	ldr	r3, [r3, #8]
 8000956:	61bb      	str	r3, [r7, #24]
        temp &= ~((uint32_t)iocurrent);
 8000958:	693b      	ldr	r3, [r7, #16]
 800095a:	43db      	mvns	r3, r3
 800095c:	69ba      	ldr	r2, [r7, #24]
 800095e:	4013      	ands	r3, r2
 8000960:	61bb      	str	r3, [r7, #24]
        if((GPIO_Init->Mode & RISING_EDGE) == RISING_EDGE)
 8000962:	683b      	ldr	r3, [r7, #0]
 8000964:	685b      	ldr	r3, [r3, #4]
 8000966:	f403 1380 	and.w	r3, r3, #1048576	; 0x100000
 800096a:	2b00      	cmp	r3, #0
 800096c:	d003      	beq.n	8000976 <HAL_GPIO_Init+0x29a>
        {
          temp |= iocurrent;
 800096e:	69ba      	ldr	r2, [r7, #24]
 8000970:	693b      	ldr	r3, [r7, #16]
 8000972:	4313      	orrs	r3, r2
 8000974:	61bb      	str	r3, [r7, #24]
        }
        EXTI->RTSR = temp;
 8000976:	4a19      	ldr	r2, [pc, #100]	; (80009dc <HAL_GPIO_Init+0x300>)
 8000978:	69bb      	ldr	r3, [r7, #24]
 800097a:	6093      	str	r3, [r2, #8]

        temp = EXTI->FTSR;
 800097c:	4b17      	ldr	r3, [pc, #92]	; (80009dc <HAL_GPIO_Init+0x300>)
 800097e:	68db      	ldr	r3, [r3, #12]
 8000980:	61bb      	str	r3, [r7, #24]
        temp &= ~((uint32_t)iocurrent);
 8000982:	693b      	ldr	r3, [r7, #16]
 8000984:	43db      	mvns	r3, r3
 8000986:	69ba      	ldr	r2, [r7, #24]
 8000988:	4013      	ands	r3, r2
 800098a:	61bb      	str	r3, [r7, #24]
        if((GPIO_Init->Mode & FALLING_EDGE) == FALLING_EDGE)
 800098c:	683b      	ldr	r3, [r7, #0]
 800098e:	685b      	ldr	r3, [r3, #4]
 8000990:	f403 1300 	and.w	r3, r3, #2097152	; 0x200000
 8000994:	2b00      	cmp	r3, #0
 8000996:	d003      	beq.n	80009a0 <HAL_GPIO_Init+0x2c4>
        {
          temp |= iocurrent;
 8000998:	69ba      	ldr	r2, [r7, #24]
 800099a:	693b      	ldr	r3, [r7, #16]
 800099c:	4313      	orrs	r3, r2
 800099e:	61bb      	str	r3, [r7, #24]
        }
        EXTI->FTSR = temp;
 80009a0:	4a0e      	ldr	r2, [pc, #56]	; (80009dc <HAL_GPIO_Init+0x300>)
 80009a2:	69bb      	ldr	r3, [r7, #24]
 80009a4:	60d3      	str	r3, [r2, #12]
  for(position = 0U; position < GPIO_NUMBER; position++)
 80009a6:	69fb      	ldr	r3, [r7, #28]
 80009a8:	3301      	adds	r3, #1
 80009aa:	61fb      	str	r3, [r7, #28]
 80009ac:	69fb      	ldr	r3, [r7, #28]
 80009ae:	2b0f      	cmp	r3, #15
 80009b0:	f67f aea2 	bls.w	80006f8 <HAL_GPIO_Init+0x1c>
      }
    }
  }
}
 80009b4:	bf00      	nop
 80009b6:	3724      	adds	r7, #36	; 0x24
 80009b8:	46bd      	mov	sp, r7
 80009ba:	f85d 7b04 	ldr.w	r7, [sp], #4
 80009be:	4770      	bx	lr
 80009c0:	40023800 	.word	0x40023800
 80009c4:	40013800 	.word	0x40013800
 80009c8:	40020000 	.word	0x40020000
 80009cc:	40020400 	.word	0x40020400
 80009d0:	40020800 	.word	0x40020800
 80009d4:	40020c00 	.word	0x40020c00
 80009d8:	40021000 	.word	0x40021000
 80009dc:	40013c00 	.word	0x40013c00

080009e0 <HAL_GPIO_TogglePin>:
  *                      x can be (A..I) to select the GPIO peripheral for STM32F40XX and STM32F427X devices.
  * @param  GPIO_Pin Specifies the pins to be toggled.
  * @retval None
  */
void HAL_GPIO_TogglePin(GPIO_TypeDef* GPIOx, uint16_t GPIO_Pin)
{
 80009e0:	b480      	push	{r7}
 80009e2:	b083      	sub	sp, #12
 80009e4:	af00      	add	r7, sp, #0
 80009e6:	6078      	str	r0, [r7, #4]
 80009e8:	460b      	mov	r3, r1
 80009ea:	807b      	strh	r3, [r7, #2]
  /* Check the parameters */
  assert_param(IS_GPIO_PIN(GPIO_Pin));

  if ((GPIOx->ODR & GPIO_Pin) == GPIO_Pin)
 80009ec:	687b      	ldr	r3, [r7, #4]
 80009ee:	695a      	ldr	r2, [r3, #20]
 80009f0:	887b      	ldrh	r3, [r7, #2]
 80009f2:	401a      	ands	r2, r3
 80009f4:	887b      	ldrh	r3, [r7, #2]
 80009f6:	429a      	cmp	r2, r3
 80009f8:	d104      	bne.n	8000a04 <HAL_GPIO_TogglePin+0x24>
  {
    GPIOx->BSRR = (uint32_t)GPIO_Pin << GPIO_NUMBER;
 80009fa:	887b      	ldrh	r3, [r7, #2]
 80009fc:	041a      	lsls	r2, r3, #16
 80009fe:	687b      	ldr	r3, [r7, #4]
 8000a00:	619a      	str	r2, [r3, #24]
  }
  else
  {
    GPIOx->BSRR = GPIO_Pin;
  }
}
 8000a02:	e002      	b.n	8000a0a <HAL_GPIO_TogglePin+0x2a>
    GPIOx->BSRR = GPIO_Pin;
 8000a04:	887a      	ldrh	r2, [r7, #2]
 8000a06:	687b      	ldr	r3, [r7, #4]
 8000a08:	619a      	str	r2, [r3, #24]
}
 8000a0a:	bf00      	nop
 8000a0c:	370c      	adds	r7, #12
 8000a0e:	46bd      	mov	sp, r7
 8000a10:	f85d 7b04 	ldr.w	r7, [sp], #4
 8000a14:	4770      	bx	lr

08000a16 <HAL_TIM_Base_Init>:
  *         Ex: call @ref HAL_TIM_Base_DeInit() before HAL_TIM_Base_Init()
  * @param  htim TIM Base handle
  * @retval HAL status
  */
HAL_StatusTypeDef HAL_TIM_Base_Init(TIM_HandleTypeDef *htim)
{
 8000a16:	b580      	push	{r7, lr}
 8000a18:	b082      	sub	sp, #8
 8000a1a:	af00      	add	r7, sp, #0
 8000a1c:	6078      	str	r0, [r7, #4]
  /* Check the TIM handle allocation */
  if (htim == NULL)
 8000a1e:	687b      	ldr	r3, [r7, #4]
 8000a20:	2b00      	cmp	r3, #0
 8000a22:	d101      	bne.n	8000a28 <HAL_TIM_Base_Init+0x12>
  {
    return HAL_ERROR;
 8000a24:	2301      	movs	r3, #1
 8000a26:	e01d      	b.n	8000a64 <HAL_TIM_Base_Init+0x4e>
  assert_param(IS_TIM_INSTANCE(htim->Instance));
  assert_param(IS_TIM_COUNTER_MODE(htim->Init.CounterMode));
  assert_param(IS_TIM_CLOCKDIVISION_DIV(htim->Init.ClockDivision));
  assert_param(IS_TIM_AUTORELOAD_PRELOAD(htim->Init.AutoReloadPreload));

  if (htim->State == HAL_TIM_STATE_RESET)
 8000a28:	687b      	ldr	r3, [r7, #4]
 8000a2a:	f893 303d 	ldrb.w	r3, [r3, #61]	; 0x3d
 8000a2e:	b2db      	uxtb	r3, r3
 8000a30:	2b00      	cmp	r3, #0
 8000a32:	d106      	bne.n	8000a42 <HAL_TIM_Base_Init+0x2c>
  {
    /* Allocate lock resource and initialize it */
    htim->Lock = HAL_UNLOCKED;
 8000a34:	687b      	ldr	r3, [r7, #4]
 8000a36:	2200      	movs	r2, #0
 8000a38:	f883 203c 	strb.w	r2, [r3, #60]	; 0x3c
    }
    /* Init the low level hardware : GPIO, CLOCK, NVIC */
    htim->Base_MspInitCallback(htim);
#else
    /* Init the low level hardware : GPIO, CLOCK, NVIC */
    HAL_TIM_Base_MspInit(htim);
 8000a3c:	6878      	ldr	r0, [r7, #4]
 8000a3e:	f7ff fc69 	bl	8000314 <HAL_TIM_Base_MspInit>
#endif /* USE_HAL_TIM_REGISTER_CALLBACKS */
  }

  /* Set the TIM state */
  htim->State = HAL_TIM_STATE_BUSY;
 8000a42:	687b      	ldr	r3, [r7, #4]
 8000a44:	2202      	movs	r2, #2
 8000a46:	f883 203d 	strb.w	r2, [r3, #61]	; 0x3d

  /* Set the Time Base configuration */
  TIM_Base_SetConfig(htim->Instance, &htim->Init);
 8000a4a:	687b      	ldr	r3, [r7, #4]
 8000a4c:	681a      	ldr	r2, [r3, #0]
 8000a4e:	687b      	ldr	r3, [r7, #4]
 8000a50:	3304      	adds	r3, #4
 8000a52:	4619      	mov	r1, r3
 8000a54:	4610      	mov	r0, r2
 8000a56:	f000 f95d 	bl	8000d14 <TIM_Base_SetConfig>

  /* Initialize the TIM state*/
  htim->State = HAL_TIM_STATE_READY;
 8000a5a:	687b      	ldr	r3, [r7, #4]
 8000a5c:	2201      	movs	r2, #1
 8000a5e:	f883 203d 	strb.w	r2, [r3, #61]	; 0x3d

  return HAL_OK;
 8000a62:	2300      	movs	r3, #0
}
 8000a64:	4618      	mov	r0, r3
 8000a66:	3708      	adds	r7, #8
 8000a68:	46bd      	mov	sp, r7
 8000a6a:	bd80      	pop	{r7, pc}

08000a6c <HAL_TIM_Base_Start_IT>:
  * @brief  Starts the TIM Base generation in interrupt mode.
  * @param  htim TIM Base handle
  * @retval HAL status
  */
HAL_StatusTypeDef HAL_TIM_Base_Start_IT(TIM_HandleTypeDef *htim)
{
 8000a6c:	b480      	push	{r7}
 8000a6e:	b085      	sub	sp, #20
 8000a70:	af00      	add	r7, sp, #0
 8000a72:	6078      	str	r0, [r7, #4]

  /* Check the parameters */
  assert_param(IS_TIM_INSTANCE(htim->Instance));

  /* Enable the TIM Update interrupt */
  __HAL_TIM_ENABLE_IT(htim, TIM_IT_UPDATE);
 8000a74:	687b      	ldr	r3, [r7, #4]
 8000a76:	681b      	ldr	r3, [r3, #0]
 8000a78:	68da      	ldr	r2, [r3, #12]
 8000a7a:	687b      	ldr	r3, [r7, #4]
 8000a7c:	681b      	ldr	r3, [r3, #0]
 8000a7e:	f042 0201 	orr.w	r2, r2, #1
 8000a82:	60da      	str	r2, [r3, #12]

  /* Enable the Peripheral, except in trigger mode where enable is automatically done with trigger */
  tmpsmcr = htim->Instance->SMCR & TIM_SMCR_SMS;
 8000a84:	687b      	ldr	r3, [r7, #4]
 8000a86:	681b      	ldr	r3, [r3, #0]
 8000a88:	689b      	ldr	r3, [r3, #8]
 8000a8a:	f003 0307 	and.w	r3, r3, #7
 8000a8e:	60fb      	str	r3, [r7, #12]
  if (!IS_TIM_SLAVEMODE_TRIGGER_ENABLED(tmpsmcr))
 8000a90:	68fb      	ldr	r3, [r7, #12]
 8000a92:	2b06      	cmp	r3, #6
 8000a94:	d007      	beq.n	8000aa6 <HAL_TIM_Base_Start_IT+0x3a>
  {
    __HAL_TIM_ENABLE(htim);
 8000a96:	687b      	ldr	r3, [r7, #4]
 8000a98:	681b      	ldr	r3, [r3, #0]
 8000a9a:	681a      	ldr	r2, [r3, #0]
 8000a9c:	687b      	ldr	r3, [r7, #4]
 8000a9e:	681b      	ldr	r3, [r3, #0]
 8000aa0:	f042 0201 	orr.w	r2, r2, #1
 8000aa4:	601a      	str	r2, [r3, #0]
  }

  /* Return function status */
  return HAL_OK;
 8000aa6:	2300      	movs	r3, #0
}
 8000aa8:	4618      	mov	r0, r3
 8000aaa:	3714      	adds	r7, #20
 8000aac:	46bd      	mov	sp, r7
 8000aae:	f85d 7b04 	ldr.w	r7, [sp], #4
 8000ab2:	4770      	bx	lr

08000ab4 <HAL_TIM_IRQHandler>:
  * @brief  This function handles TIM interrupts requests.
  * @param  htim TIM  handle
  * @retval None
  */
void HAL_TIM_IRQHandler(TIM_HandleTypeDef *htim)
{
 8000ab4:	b580      	push	{r7, lr}
 8000ab6:	b082      	sub	sp, #8
 8000ab8:	af00      	add	r7, sp, #0
 8000aba:	6078      	str	r0, [r7, #4]
  /* Capture compare 1 event */
  if (__HAL_TIM_GET_FLAG(htim, TIM_FLAG_CC1) != RESET)
 8000abc:	687b      	ldr	r3, [r7, #4]
 8000abe:	681b      	ldr	r3, [r3, #0]
 8000ac0:	691b      	ldr	r3, [r3, #16]
 8000ac2:	f003 0302 	and.w	r3, r3, #2
 8000ac6:	2b02      	cmp	r3, #2
 8000ac8:	d122      	bne.n	8000b10 <HAL_TIM_IRQHandler+0x5c>
  {
    if (__HAL_TIM_GET_IT_SOURCE(htim, TIM_IT_CC1) != RESET)
 8000aca:	687b      	ldr	r3, [r7, #4]
 8000acc:	681b      	ldr	r3, [r3, #0]
 8000ace:	68db      	ldr	r3, [r3, #12]
 8000ad0:	f003 0302 	and.w	r3, r3, #2
 8000ad4:	2b02      	cmp	r3, #2
 8000ad6:	d11b      	bne.n	8000b10 <HAL_TIM_IRQHandler+0x5c>
    {
      {
        __HAL_TIM_CLEAR_IT(htim, TIM_IT_CC1);
 8000ad8:	687b      	ldr	r3, [r7, #4]
 8000ada:	681b      	ldr	r3, [r3, #0]
 8000adc:	f06f 0202 	mvn.w	r2, #2
 8000ae0:	611a      	str	r2, [r3, #16]
        htim->Channel = HAL_TIM_ACTIVE_CHANNEL_1;
 8000ae2:	687b      	ldr	r3, [r7, #4]
 8000ae4:	2201      	movs	r2, #1
 8000ae6:	771a      	strb	r2, [r3, #28]

        /* Input capture event */
        if ((htim->Instance->CCMR1 & TIM_CCMR1_CC1S) != 0x00U)
 8000ae8:	687b      	ldr	r3, [r7, #4]
 8000aea:	681b      	ldr	r3, [r3, #0]
 8000aec:	699b      	ldr	r3, [r3, #24]
 8000aee:	f003 0303 	and.w	r3, r3, #3
 8000af2:	2b00      	cmp	r3, #0
 8000af4:	d003      	beq.n	8000afe <HAL_TIM_IRQHandler+0x4a>
        {
#if (USE_HAL_TIM_REGISTER_CALLBACKS == 1)
          htim->IC_CaptureCallback(htim);
#else
          HAL_TIM_IC_CaptureCallback(htim);
 8000af6:	6878      	ldr	r0, [r7, #4]
 8000af8:	f000 f8ee 	bl	8000cd8 <HAL_TIM_IC_CaptureCallback>
 8000afc:	e005      	b.n	8000b0a <HAL_TIM_IRQHandler+0x56>
        {
#if (USE_HAL_TIM_REGISTER_CALLBACKS == 1)
          htim->OC_DelayElapsedCallback(htim);
          htim->PWM_PulseFinishedCallback(htim);
#else
          HAL_TIM_OC_DelayElapsedCallback(htim);
 8000afe:	6878      	ldr	r0, [r7, #4]
 8000b00:	f000 f8e0 	bl	8000cc4 <HAL_TIM_OC_DelayElapsedCallback>
          HAL_TIM_PWM_PulseFinishedCallback(htim);
 8000b04:	6878      	ldr	r0, [r7, #4]
 8000b06:	f000 f8f1 	bl	8000cec <HAL_TIM_PWM_PulseFinishedCallback>
#endif /* USE_HAL_TIM_REGISTER_CALLBACKS */
        }
        htim->Channel = HAL_TIM_ACTIVE_CHANNEL_CLEARED;
 8000b0a:	687b      	ldr	r3, [r7, #4]
 8000b0c:	2200      	movs	r2, #0
 8000b0e:	771a      	strb	r2, [r3, #28]
      }
    }
  }
  /* Capture compare 2 event */
  if (__HAL_TIM_GET_FLAG(htim, TIM_FLAG_CC2) != RESET)
 8000b10:	687b      	ldr	r3, [r7, #4]
 8000b12:	681b      	ldr	r3, [r3, #0]
 8000b14:	691b      	ldr	r3, [r3, #16]
 8000b16:	f003 0304 	and.w	r3, r3, #4
 8000b1a:	2b04      	cmp	r3, #4
 8000b1c:	d122      	bne.n	8000b64 <HAL_TIM_IRQHandler+0xb0>
  {
    if (__HAL_TIM_GET_IT_SOURCE(htim, TIM_IT_CC2) != RESET)
 8000b1e:	687b      	ldr	r3, [r7, #4]
 8000b20:	681b      	ldr	r3, [r3, #0]
 8000b22:	68db      	ldr	r3, [r3, #12]
 8000b24:	f003 0304 	and.w	r3, r3, #4
 8000b28:	2b04      	cmp	r3, #4
 8000b2a:	d11b      	bne.n	8000b64 <HAL_TIM_IRQHandler+0xb0>
    {
      __HAL_TIM_CLEAR_IT(htim, TIM_IT_CC2);
 8000b2c:	687b      	ldr	r3, [r7, #4]
 8000b2e:	681b      	ldr	r3, [r3, #0]
 8000b30:	f06f 0204 	mvn.w	r2, #4
 8000b34:	611a      	str	r2, [r3, #16]
      htim->Channel = HAL_TIM_ACTIVE_CHANNEL_2;
 8000b36:	687b      	ldr	r3, [r7, #4]
 8000b38:	2202      	movs	r2, #2
 8000b3a:	771a      	strb	r2, [r3, #28]
      /* Input capture event */
      if ((htim->Instance->CCMR1 & TIM_CCMR1_CC2S) != 0x00U)
 8000b3c:	687b      	ldr	r3, [r7, #4]
 8000b3e:	681b      	ldr	r3, [r3, #0]
 8000b40:	699b      	ldr	r3, [r3, #24]
 8000b42:	f403 7340 	and.w	r3, r3, #768	; 0x300
 8000b46:	2b00      	cmp	r3, #0
 8000b48:	d003      	beq.n	8000b52 <HAL_TIM_IRQHandler+0x9e>
      {
#if (USE_HAL_TIM_REGISTER_CALLBACKS == 1)
        htim->IC_CaptureCallback(htim);
#else
        HAL_TIM_IC_CaptureCallback(htim);
 8000b4a:	6878      	ldr	r0, [r7, #4]
 8000b4c:	f000 f8c4 	bl	8000cd8 <HAL_TIM_IC_CaptureCallback>
 8000b50:	e005      	b.n	8000b5e <HAL_TIM_IRQHandler+0xaa>
      {
#if (USE_HAL_TIM_REGISTER_CALLBACKS == 1)
        htim->OC_DelayElapsedCallback(htim);
        htim->PWM_PulseFinishedCallback(htim);
#else
        HAL_TIM_OC_DelayElapsedCallback(htim);
 8000b52:	6878      	ldr	r0, [r7, #4]
 8000b54:	f000 f8b6 	bl	8000cc4 <HAL_TIM_OC_DelayElapsedCallback>
        HAL_TIM_PWM_PulseFinishedCallback(htim);
 8000b58:	6878      	ldr	r0, [r7, #4]
 8000b5a:	f000 f8c7 	bl	8000cec <HAL_TIM_PWM_PulseFinishedCallback>
#endif /* USE_HAL_TIM_REGISTER_CALLBACKS */
      }
      htim->Channel = HAL_TIM_ACTIVE_CHANNEL_CLEARED;
 8000b5e:	687b      	ldr	r3, [r7, #4]
 8000b60:	2200      	movs	r2, #0
 8000b62:	771a      	strb	r2, [r3, #28]
    }
  }
  /* Capture compare 3 event */
  if (__HAL_TIM_GET_FLAG(htim, TIM_FLAG_CC3) != RESET)
 8000b64:	687b      	ldr	r3, [r7, #4]
 8000b66:	681b      	ldr	r3, [r3, #0]
 8000b68:	691b      	ldr	r3, [r3, #16]
 8000b6a:	f003 0308 	and.w	r3, r3, #8
 8000b6e:	2b08      	cmp	r3, #8
 8000b70:	d122      	bne.n	8000bb8 <HAL_TIM_IRQHandler+0x104>
  {
    if (__HAL_TIM_GET_IT_SOURCE(htim, TIM_IT_CC3) != RESET)
 8000b72:	687b      	ldr	r3, [r7, #4]
 8000b74:	681b      	ldr	r3, [r3, #0]
 8000b76:	68db      	ldr	r3, [r3, #12]
 8000b78:	f003 0308 	and.w	r3, r3, #8
 8000b7c:	2b08      	cmp	r3, #8
 8000b7e:	d11b      	bne.n	8000bb8 <HAL_TIM_IRQHandler+0x104>
    {
      __HAL_TIM_CLEAR_IT(htim, TIM_IT_CC3);
 8000b80:	687b      	ldr	r3, [r7, #4]
 8000b82:	681b      	ldr	r3, [r3, #0]
 8000b84:	f06f 0208 	mvn.w	r2, #8
 8000b88:	611a      	str	r2, [r3, #16]
      htim->Channel = HAL_TIM_ACTIVE_CHANNEL_3;
 8000b8a:	687b      	ldr	r3, [r7, #4]
 8000b8c:	2204      	movs	r2, #4
 8000b8e:	771a      	strb	r2, [r3, #28]
      /* Input capture event */
      if ((htim->Instance->CCMR2 & TIM_CCMR2_CC3S) != 0x00U)
 8000b90:	687b      	ldr	r3, [r7, #4]
 8000b92:	681b      	ldr	r3, [r3, #0]
 8000b94:	69db      	ldr	r3, [r3, #28]
 8000b96:	f003 0303 	and.w	r3, r3, #3
 8000b9a:	2b00      	cmp	r3, #0
 8000b9c:	d003      	beq.n	8000ba6 <HAL_TIM_IRQHandler+0xf2>
      {
#if (USE_HAL_TIM_REGISTER_CALLBACKS == 1)
        htim->IC_CaptureCallback(htim);
#else
        HAL_TIM_IC_CaptureCallback(htim);
 8000b9e:	6878      	ldr	r0, [r7, #4]
 8000ba0:	f000 f89a 	bl	8000cd8 <HAL_TIM_IC_CaptureCallback>
 8000ba4:	e005      	b.n	8000bb2 <HAL_TIM_IRQHandler+0xfe>
      {
#if (USE_HAL_TIM_REGISTER_CALLBACKS == 1)
        htim->OC_DelayElapsedCallback(htim);
        htim->PWM_PulseFinishedCallback(htim);
#else
        HAL_TIM_OC_DelayElapsedCallback(htim);
 8000ba6:	6878      	ldr	r0, [r7, #4]
 8000ba8:	f000 f88c 	bl	8000cc4 <HAL_TIM_OC_DelayElapsedCallback>
        HAL_TIM_PWM_PulseFinishedCallback(htim);
 8000bac:	6878      	ldr	r0, [r7, #4]
 8000bae:	f000 f89d 	bl	8000cec <HAL_TIM_PWM_PulseFinishedCallback>
#endif /* USE_HAL_TIM_REGISTER_CALLBACKS */
      }
      htim->Channel = HAL_TIM_ACTIVE_CHANNEL_CLEARED;
 8000bb2:	687b      	ldr	r3, [r7, #4]
 8000bb4:	2200      	movs	r2, #0
 8000bb6:	771a      	strb	r2, [r3, #28]
    }
  }
  /* Capture compare 4 event */
  if (__HAL_TIM_GET_FLAG(htim, TIM_FLAG_CC4) != RESET)
 8000bb8:	687b      	ldr	r3, [r7, #4]
 8000bba:	681b      	ldr	r3, [r3, #0]
 8000bbc:	691b      	ldr	r3, [r3, #16]
 8000bbe:	f003 0310 	and.w	r3, r3, #16
 8000bc2:	2b10      	cmp	r3, #16
 8000bc4:	d122      	bne.n	8000c0c <HAL_TIM_IRQHandler+0x158>
  {
    if (__HAL_TIM_GET_IT_SOURCE(htim, TIM_IT_CC4) != RESET)
 8000bc6:	687b      	ldr	r3, [r7, #4]
 8000bc8:	681b      	ldr	r3, [r3, #0]
 8000bca:	68db      	ldr	r3, [r3, #12]
 8000bcc:	f003 0310 	and.w	r3, r3, #16
 8000bd0:	2b10      	cmp	r3, #16
 8000bd2:	d11b      	bne.n	8000c0c <HAL_TIM_IRQHandler+0x158>
    {
      __HAL_TIM_CLEAR_IT(htim, TIM_IT_CC4);
 8000bd4:	687b      	ldr	r3, [r7, #4]
 8000bd6:	681b      	ldr	r3, [r3, #0]
 8000bd8:	f06f 0210 	mvn.w	r2, #16
 8000bdc:	611a      	str	r2, [r3, #16]
      htim->Channel = HAL_TIM_ACTIVE_CHANNEL_4;
 8000bde:	687b      	ldr	r3, [r7, #4]
 8000be0:	2208      	movs	r2, #8
 8000be2:	771a      	strb	r2, [r3, #28]
      /* Input capture event */
      if ((htim->Instance->CCMR2 & TIM_CCMR2_CC4S) != 0x00U)
 8000be4:	687b      	ldr	r3, [r7, #4]
 8000be6:	681b      	ldr	r3, [r3, #0]
 8000be8:	69db      	ldr	r3, [r3, #28]
 8000bea:	f403 7340 	and.w	r3, r3, #768	; 0x300
 8000bee:	2b00      	cmp	r3, #0
 8000bf0:	d003      	beq.n	8000bfa <HAL_TIM_IRQHandler+0x146>
      {
#if (USE_HAL_TIM_REGISTER_CALLBACKS == 1)
        htim->IC_CaptureCallback(htim);
#else
        HAL_TIM_IC_CaptureCallback(htim);
 8000bf2:	6878      	ldr	r0, [r7, #4]
 8000bf4:	f000 f870 	bl	8000cd8 <HAL_TIM_IC_CaptureCallback>
 8000bf8:	e005      	b.n	8000c06 <HAL_TIM_IRQHandler+0x152>
      {
#if (USE_HAL_TIM_REGISTER_CALLBACKS == 1)
        htim->OC_DelayElapsedCallback(htim);
        htim->PWM_PulseFinishedCallback(htim);
#else
        HAL_TIM_OC_DelayElapsedCallback(htim);
 8000bfa:	6878      	ldr	r0, [r7, #4]
 8000bfc:	f000 f862 	bl	8000cc4 <HAL_TIM_OC_DelayElapsedCallback>
        HAL_TIM_PWM_PulseFinishedCallback(htim);
 8000c00:	6878      	ldr	r0, [r7, #4]
 8000c02:	f000 f873 	bl	8000cec <HAL_TIM_PWM_PulseFinishedCallback>
#endif /* USE_HAL_TIM_REGISTER_CALLBACKS */
      }
      htim->Channel = HAL_TIM_ACTIVE_CHANNEL_CLEARED;
 8000c06:	687b      	ldr	r3, [r7, #4]
 8000c08:	2200      	movs	r2, #0
 8000c0a:	771a      	strb	r2, [r3, #28]
    }
  }
  /* TIM Update event */
  if (__HAL_TIM_GET_FLAG(htim, TIM_FLAG_UPDATE) != RESET)
 8000c0c:	687b      	ldr	r3, [r7, #4]
 8000c0e:	681b      	ldr	r3, [r3, #0]
 8000c10:	691b      	ldr	r3, [r3, #16]
 8000c12:	f003 0301 	and.w	r3, r3, #1
 8000c16:	2b01      	cmp	r3, #1
 8000c18:	d10e      	bne.n	8000c38 <HAL_TIM_IRQHandler+0x184>
  {
    if (__HAL_TIM_GET_IT_SOURCE(htim, TIM_IT_UPDATE) != RESET)
 8000c1a:	687b      	ldr	r3, [r7, #4]
 8000c1c:	681b      	ldr	r3, [r3, #0]
 8000c1e:	68db      	ldr	r3, [r3, #12]
 8000c20:	f003 0301 	and.w	r3, r3, #1
 8000c24:	2b01      	cmp	r3, #1
 8000c26:	d107      	bne.n	8000c38 <HAL_TIM_IRQHandler+0x184>
    {
      __HAL_TIM_CLEAR_IT(htim, TIM_IT_UPDATE);
 8000c28:	687b      	ldr	r3, [r7, #4]
 8000c2a:	681b      	ldr	r3, [r3, #0]
 8000c2c:	f06f 0201 	mvn.w	r2, #1
 8000c30:	611a      	str	r2, [r3, #16]
#if (USE_HAL_TIM_REGISTER_CALLBACKS == 1)
      htim->PeriodElapsedCallback(htim);
#else
      HAL_TIM_PeriodElapsedCallback(htim);
 8000c32:	6878      	ldr	r0, [r7, #4]
 8000c34:	f7ff fb0a 	bl	800024c <HAL_TIM_PeriodElapsedCallback>
#endif /* USE_HAL_TIM_REGISTER_CALLBACKS */
    }
  }
  /* TIM Break input event */
  if (__HAL_TIM_GET_FLAG(htim, TIM_FLAG_BREAK) != RESET)
 8000c38:	687b      	ldr	r3, [r7, #4]
 8000c3a:	681b      	ldr	r3, [r3, #0]
 8000c3c:	691b      	ldr	r3, [r3, #16]
 8000c3e:	f003 0380 	and.w	r3, r3, #128	; 0x80
 8000c42:	2b80      	cmp	r3, #128	; 0x80
 8000c44:	d10e      	bne.n	8000c64 <HAL_TIM_IRQHandler+0x1b0>
  {
    if (__HAL_TIM_GET_IT_SOURCE(htim, TIM_IT_BREAK) != RESET)
 8000c46:	687b      	ldr	r3, [r7, #4]
 8000c48:	681b      	ldr	r3, [r3, #0]
 8000c4a:	68db      	ldr	r3, [r3, #12]
 8000c4c:	f003 0380 	and.w	r3, r3, #128	; 0x80
 8000c50:	2b80      	cmp	r3, #128	; 0x80
 8000c52:	d107      	bne.n	8000c64 <HAL_TIM_IRQHandler+0x1b0>
    {
      __HAL_TIM_CLEAR_IT(htim, TIM_IT_BREAK);
 8000c54:	687b      	ldr	r3, [r7, #4]
 8000c56:	681b      	ldr	r3, [r3, #0]
 8000c58:	f06f 0280 	mvn.w	r2, #128	; 0x80
 8000c5c:	611a      	str	r2, [r3, #16]
#if (USE_HAL_TIM_REGISTER_CALLBACKS == 1)
      htim->BreakCallback(htim);
#else
      HAL_TIMEx_BreakCallback(htim);
 8000c5e:	6878      	ldr	r0, [r7, #4]
 8000c60:	f000 f8e2 	bl	8000e28 <HAL_TIMEx_BreakCallback>
#endif /* USE_HAL_TIM_REGISTER_CALLBACKS */
    }
  }
  /* TIM Trigger detection event */
  if (__HAL_TIM_GET_FLAG(htim, TIM_FLAG_TRIGGER) != RESET)
 8000c64:	687b      	ldr	r3, [r7, #4]
 8000c66:	681b      	ldr	r3, [r3, #0]
 8000c68:	691b      	ldr	r3, [r3, #16]
 8000c6a:	f003 0340 	and.w	r3, r3, #64	; 0x40
 8000c6e:	2b40      	cmp	r3, #64	; 0x40
 8000c70:	d10e      	bne.n	8000c90 <HAL_TIM_IRQHandler+0x1dc>
  {
    if (__HAL_TIM_GET_IT_SOURCE(htim, TIM_IT_TRIGGER) != RESET)
 8000c72:	687b      	ldr	r3, [r7, #4]
 8000c74:	681b      	ldr	r3, [r3, #0]
 8000c76:	68db      	ldr	r3, [r3, #12]
 8000c78:	f003 0340 	and.w	r3, r3, #64	; 0x40
 8000c7c:	2b40      	cmp	r3, #64	; 0x40
 8000c7e:	d107      	bne.n	8000c90 <HAL_TIM_IRQHandler+0x1dc>
    {
      __HAL_TIM_CLEAR_IT(htim, TIM_IT_TRIGGER);
 8000c80:	687b      	ldr	r3, [r7, #4]
 8000c82:	681b      	ldr	r3, [r3, #0]
 8000c84:	f06f 0240 	mvn.w	r2, #64	; 0x40
 8000c88:	611a      	str	r2, [r3, #16]
#if (USE_HAL_TIM_REGISTER_CALLBACKS == 1)
      htim->TriggerCallback(htim);
#else
      HAL_TIM_TriggerCallback(htim);
 8000c8a:	6878      	ldr	r0, [r7, #4]
 8000c8c:	f000 f838 	bl	8000d00 <HAL_TIM_TriggerCallback>
#endif /* USE_HAL_TIM_REGISTER_CALLBACKS */
    }
  }
  /* TIM commutation event */
  if (__HAL_TIM_GET_FLAG(htim, TIM_FLAG_COM) != RESET)
 8000c90:	687b      	ldr	r3, [r7, #4]
 8000c92:	681b      	ldr	r3, [r3, #0]
 8000c94:	691b      	ldr	r3, [r3, #16]
 8000c96:	f003 0320 	and.w	r3, r3, #32
 8000c9a:	2b20      	cmp	r3, #32
 8000c9c:	d10e      	bne.n	8000cbc <HAL_TIM_IRQHandler+0x208>
  {
    if (__HAL_TIM_GET_IT_SOURCE(htim, TIM_IT_COM) != RESET)
 8000c9e:	687b      	ldr	r3, [r7, #4]
 8000ca0:	681b      	ldr	r3, [r3, #0]
 8000ca2:	68db      	ldr	r3, [r3, #12]
 8000ca4:	f003 0320 	and.w	r3, r3, #32
 8000ca8:	2b20      	cmp	r3, #32
 8000caa:	d107      	bne.n	8000cbc <HAL_TIM_IRQHandler+0x208>
    {
      __HAL_TIM_CLEAR_IT(htim, TIM_FLAG_COM);
 8000cac:	687b      	ldr	r3, [r7, #4]
 8000cae:	681b      	ldr	r3, [r3, #0]
 8000cb0:	f06f 0220 	mvn.w	r2, #32
 8000cb4:	611a      	str	r2, [r3, #16]
#if (USE_HAL_TIM_REGISTER_CALLBACKS == 1)
      htim->CommutationCallback(htim);
#else
      HAL_TIMEx_CommutCallback(htim);
 8000cb6:	6878      	ldr	r0, [r7, #4]
 8000cb8:	f000 f8ac 	bl	8000e14 <HAL_TIMEx_CommutCallback>
#endif /* USE_HAL_TIM_REGISTER_CALLBACKS */
    }
  }
}
 8000cbc:	bf00      	nop
 8000cbe:	3708      	adds	r7, #8
 8000cc0:	46bd      	mov	sp, r7
 8000cc2:	bd80      	pop	{r7, pc}

08000cc4 <HAL_TIM_OC_DelayElapsedCallback>:
  * @brief  Output Compare callback in non-blocking mode
  * @param  htim TIM OC handle
  * @retval None
  */
__weak void HAL_TIM_OC_DelayElapsedCallback(TIM_HandleTypeDef *htim)
{
 8000cc4:	b480      	push	{r7}
 8000cc6:	b083      	sub	sp, #12
 8000cc8:	af00      	add	r7, sp, #0
 8000cca:	6078      	str	r0, [r7, #4]
  UNUSED(htim);

  /* NOTE : This function should not be modified, when the callback is needed,
            the HAL_TIM_OC_DelayElapsedCallback could be implemented in the user file
   */
}
 8000ccc:	bf00      	nop
 8000cce:	370c      	adds	r7, #12
 8000cd0:	46bd      	mov	sp, r7
 8000cd2:	f85d 7b04 	ldr.w	r7, [sp], #4
 8000cd6:	4770      	bx	lr

08000cd8 <HAL_TIM_IC_CaptureCallback>:
  * @brief  Input Capture callback in non-blocking mode
  * @param  htim TIM IC handle
  * @retval None
  */
__weak void HAL_TIM_IC_CaptureCallback(TIM_HandleTypeDef *htim)
{
 8000cd8:	b480      	push	{r7}
 8000cda:	b083      	sub	sp, #12
 8000cdc:	af00      	add	r7, sp, #0
 8000cde:	6078      	str	r0, [r7, #4]
  UNUSED(htim);

  /* NOTE : This function should not be modified, when the callback is needed,
            the HAL_TIM_IC_CaptureCallback could be implemented in the user file
   */
}
 8000ce0:	bf00      	nop
 8000ce2:	370c      	adds	r7, #12
 8000ce4:	46bd      	mov	sp, r7
 8000ce6:	f85d 7b04 	ldr.w	r7, [sp], #4
 8000cea:	4770      	bx	lr

08000cec <HAL_TIM_PWM_PulseFinishedCallback>:
  * @brief  PWM Pulse finished callback in non-blocking mode
  * @param  htim TIM handle
  * @retval None
  */
__weak void HAL_TIM_PWM_PulseFinishedCallback(TIM_HandleTypeDef *htim)
{
 8000cec:	b480      	push	{r7}
 8000cee:	b083      	sub	sp, #12
 8000cf0:	af00      	add	r7, sp, #0
 8000cf2:	6078      	str	r0, [r7, #4]
  UNUSED(htim);

  /* NOTE : This function should not be modified, when the callback is needed,
            the HAL_TIM_PWM_PulseFinishedCallback could be implemented in the user file
   */
}
 8000cf4:	bf00      	nop
 8000cf6:	370c      	adds	r7, #12
 8000cf8:	46bd      	mov	sp, r7
 8000cfa:	f85d 7b04 	ldr.w	r7, [sp], #4
 8000cfe:	4770      	bx	lr

08000d00 <HAL_TIM_TriggerCallback>:
  * @brief  Hall Trigger detection callback in non-blocking mode
  * @param  htim TIM handle
  * @retval None
  */
__weak void HAL_TIM_TriggerCallback(TIM_HandleTypeDef *htim)
{
 8000d00:	b480      	push	{r7}
 8000d02:	b083      	sub	sp, #12
 8000d04:	af00      	add	r7, sp, #0
 8000d06:	6078      	str	r0, [r7, #4]
  UNUSED(htim);

  /* NOTE : This function should not be modified, when the callback is needed,
            the HAL_TIM_TriggerCallback could be implemented in the user file
   */
}
 8000d08:	bf00      	nop
 8000d0a:	370c      	adds	r7, #12
 8000d0c:	46bd      	mov	sp, r7
 8000d0e:	f85d 7b04 	ldr.w	r7, [sp], #4
 8000d12:	4770      	bx	lr

08000d14 <TIM_Base_SetConfig>:
  * @param  TIMx TIM peripheral
  * @param  Structure TIM Base configuration structure
  * @retval None
  */
void TIM_Base_SetConfig(TIM_TypeDef *TIMx, TIM_Base_InitTypeDef *Structure)
{
 8000d14:	b480      	push	{r7}
 8000d16:	b085      	sub	sp, #20
 8000d18:	af00      	add	r7, sp, #0
 8000d1a:	6078      	str	r0, [r7, #4]
 8000d1c:	6039      	str	r1, [r7, #0]
  uint32_t tmpcr1;
  tmpcr1 = TIMx->CR1;
 8000d1e:	687b      	ldr	r3, [r7, #4]
 8000d20:	681b      	ldr	r3, [r3, #0]
 8000d22:	60fb      	str	r3, [r7, #12]

  /* Set TIM Time Base Unit parameters ---------------------------------------*/
  if (IS_TIM_COUNTER_MODE_SELECT_INSTANCE(TIMx))
 8000d24:	687b      	ldr	r3, [r7, #4]
 8000d26:	4a34      	ldr	r2, [pc, #208]	; (8000df8 <TIM_Base_SetConfig+0xe4>)
 8000d28:	4293      	cmp	r3, r2
 8000d2a:	d00f      	beq.n	8000d4c <TIM_Base_SetConfig+0x38>
 8000d2c:	687b      	ldr	r3, [r7, #4]
 8000d2e:	f1b3 4f80 	cmp.w	r3, #1073741824	; 0x40000000
 8000d32:	d00b      	beq.n	8000d4c <TIM_Base_SetConfig+0x38>
 8000d34:	687b      	ldr	r3, [r7, #4]
 8000d36:	4a31      	ldr	r2, [pc, #196]	; (8000dfc <TIM_Base_SetConfig+0xe8>)
 8000d38:	4293      	cmp	r3, r2
 8000d3a:	d007      	beq.n	8000d4c <TIM_Base_SetConfig+0x38>
 8000d3c:	687b      	ldr	r3, [r7, #4]
 8000d3e:	4a30      	ldr	r2, [pc, #192]	; (8000e00 <TIM_Base_SetConfig+0xec>)
 8000d40:	4293      	cmp	r3, r2
 8000d42:	d003      	beq.n	8000d4c <TIM_Base_SetConfig+0x38>
 8000d44:	687b      	ldr	r3, [r7, #4]
 8000d46:	4a2f      	ldr	r2, [pc, #188]	; (8000e04 <TIM_Base_SetConfig+0xf0>)
 8000d48:	4293      	cmp	r3, r2
 8000d4a:	d108      	bne.n	8000d5e <TIM_Base_SetConfig+0x4a>
  {
    /* Select the Counter Mode */
    tmpcr1 &= ~(TIM_CR1_DIR | TIM_CR1_CMS);
 8000d4c:	68fb      	ldr	r3, [r7, #12]
 8000d4e:	f023 0370 	bic.w	r3, r3, #112	; 0x70
 8000d52:	60fb      	str	r3, [r7, #12]
    tmpcr1 |= Structure->CounterMode;
 8000d54:	683b      	ldr	r3, [r7, #0]
 8000d56:	685b      	ldr	r3, [r3, #4]
 8000d58:	68fa      	ldr	r2, [r7, #12]
 8000d5a:	4313      	orrs	r3, r2
 8000d5c:	60fb      	str	r3, [r7, #12]
  }

  if (IS_TIM_CLOCK_DIVISION_INSTANCE(TIMx))
 8000d5e:	687b      	ldr	r3, [r7, #4]
 8000d60:	4a25      	ldr	r2, [pc, #148]	; (8000df8 <TIM_Base_SetConfig+0xe4>)
 8000d62:	4293      	cmp	r3, r2
 8000d64:	d01b      	beq.n	8000d9e <TIM_Base_SetConfig+0x8a>
 8000d66:	687b      	ldr	r3, [r7, #4]
 8000d68:	f1b3 4f80 	cmp.w	r3, #1073741824	; 0x40000000
 8000d6c:	d017      	beq.n	8000d9e <TIM_Base_SetConfig+0x8a>
 8000d6e:	687b      	ldr	r3, [r7, #4]
 8000d70:	4a22      	ldr	r2, [pc, #136]	; (8000dfc <TIM_Base_SetConfig+0xe8>)
 8000d72:	4293      	cmp	r3, r2
 8000d74:	d013      	beq.n	8000d9e <TIM_Base_SetConfig+0x8a>
 8000d76:	687b      	ldr	r3, [r7, #4]
 8000d78:	4a21      	ldr	r2, [pc, #132]	; (8000e00 <TIM_Base_SetConfig+0xec>)
 8000d7a:	4293      	cmp	r3, r2
 8000d7c:	d00f      	beq.n	8000d9e <TIM_Base_SetConfig+0x8a>
 8000d7e:	687b      	ldr	r3, [r7, #4]
 8000d80:	4a20      	ldr	r2, [pc, #128]	; (8000e04 <TIM_Base_SetConfig+0xf0>)
 8000d82:	4293      	cmp	r3, r2
 8000d84:	d00b      	beq.n	8000d9e <TIM_Base_SetConfig+0x8a>
 8000d86:	687b      	ldr	r3, [r7, #4]
 8000d88:	4a1f      	ldr	r2, [pc, #124]	; (8000e08 <TIM_Base_SetConfig+0xf4>)
 8000d8a:	4293      	cmp	r3, r2
 8000d8c:	d007      	beq.n	8000d9e <TIM_Base_SetConfig+0x8a>
 8000d8e:	687b      	ldr	r3, [r7, #4]
 8000d90:	4a1e      	ldr	r2, [pc, #120]	; (8000e0c <TIM_Base_SetConfig+0xf8>)
 8000d92:	4293      	cmp	r3, r2
 8000d94:	d003      	beq.n	8000d9e <TIM_Base_SetConfig+0x8a>
 8000d96:	687b      	ldr	r3, [r7, #4]
 8000d98:	4a1d      	ldr	r2, [pc, #116]	; (8000e10 <TIM_Base_SetConfig+0xfc>)
 8000d9a:	4293      	cmp	r3, r2
 8000d9c:	d108      	bne.n	8000db0 <TIM_Base_SetConfig+0x9c>
  {
    /* Set the clock division */
    tmpcr1 &= ~TIM_CR1_CKD;
 8000d9e:	68fb      	ldr	r3, [r7, #12]
 8000da0:	f423 7340 	bic.w	r3, r3, #768	; 0x300
 8000da4:	60fb      	str	r3, [r7, #12]
    tmpcr1 |= (uint32_t)Structure->ClockDivision;
 8000da6:	683b      	ldr	r3, [r7, #0]
 8000da8:	68db      	ldr	r3, [r3, #12]
 8000daa:	68fa      	ldr	r2, [r7, #12]
 8000dac:	4313      	orrs	r3, r2
 8000dae:	60fb      	str	r3, [r7, #12]
  }

  /* Set the auto-reload preload */
  MODIFY_REG(tmpcr1, TIM_CR1_ARPE, Structure->AutoReloadPreload);
 8000db0:	68fb      	ldr	r3, [r7, #12]
 8000db2:	f023 0280 	bic.w	r2, r3, #128	; 0x80
 8000db6:	683b      	ldr	r3, [r7, #0]
 8000db8:	695b      	ldr	r3, [r3, #20]
 8000dba:	4313      	orrs	r3, r2
 8000dbc:	60fb      	str	r3, [r7, #12]

  TIMx->CR1 = tmpcr1;
 8000dbe:	687b      	ldr	r3, [r7, #4]
 8000dc0:	68fa      	ldr	r2, [r7, #12]
 8000dc2:	601a      	str	r2, [r3, #0]

  /* Set the Autoreload value */
  TIMx->ARR = (uint32_t)Structure->Period ;
 8000dc4:	683b      	ldr	r3, [r7, #0]
 8000dc6:	689a      	ldr	r2, [r3, #8]
 8000dc8:	687b      	ldr	r3, [r7, #4]
 8000dca:	62da      	str	r2, [r3, #44]	; 0x2c

  /* Set the Prescaler value */
  TIMx->PSC = Structure->Prescaler;
 8000dcc:	683b      	ldr	r3, [r7, #0]
 8000dce:	681a      	ldr	r2, [r3, #0]
 8000dd0:	687b      	ldr	r3, [r7, #4]
 8000dd2:	629a      	str	r2, [r3, #40]	; 0x28

  if (IS_TIM_REPETITION_COUNTER_INSTANCE(TIMx))
 8000dd4:	687b      	ldr	r3, [r7, #4]
 8000dd6:	4a08      	ldr	r2, [pc, #32]	; (8000df8 <TIM_Base_SetConfig+0xe4>)
 8000dd8:	4293      	cmp	r3, r2
 8000dda:	d103      	bne.n	8000de4 <TIM_Base_SetConfig+0xd0>
  {
    /* Set the Repetition Counter value */
    TIMx->RCR = Structure->RepetitionCounter;
 8000ddc:	683b      	ldr	r3, [r7, #0]
 8000dde:	691a      	ldr	r2, [r3, #16]
 8000de0:	687b      	ldr	r3, [r7, #4]
 8000de2:	631a      	str	r2, [r3, #48]	; 0x30
  }

  /* Generate an update event to reload the Prescaler
     and the repetition counter (only for advanced timer) value immediately */
  TIMx->EGR = TIM_EGR_UG;
 8000de4:	687b      	ldr	r3, [r7, #4]
 8000de6:	2201      	movs	r2, #1
 8000de8:	615a      	str	r2, [r3, #20]
}
 8000dea:	bf00      	nop
 8000dec:	3714      	adds	r7, #20
 8000dee:	46bd      	mov	sp, r7
 8000df0:	f85d 7b04 	ldr.w	r7, [sp], #4
 8000df4:	4770      	bx	lr
 8000df6:	bf00      	nop
 8000df8:	40010000 	.word	0x40010000
 8000dfc:	40000400 	.word	0x40000400
 8000e00:	40000800 	.word	0x40000800
 8000e04:	40000c00 	.word	0x40000c00
 8000e08:	40014000 	.word	0x40014000
 8000e0c:	40014400 	.word	0x40014400
 8000e10:	40014800 	.word	0x40014800

08000e14 <HAL_TIMEx_CommutCallback>:
  * @brief  Hall commutation changed callback in non-blocking mode
  * @param  htim TIM handle
  * @retval None
  */
__weak void HAL_TIMEx_CommutCallback(TIM_HandleTypeDef *htim)
{
 8000e14:	b480      	push	{r7}
 8000e16:	b083      	sub	sp, #12
 8000e18:	af00      	add	r7, sp, #0
 8000e1a:	6078      	str	r0, [r7, #4]
  UNUSED(htim);

  /* NOTE : This function should not be modified, when the callback is needed,
            the HAL_TIMEx_CommutCallback could be implemented in the user file
   */
}
 8000e1c:	bf00      	nop
 8000e1e:	370c      	adds	r7, #12
 8000e20:	46bd      	mov	sp, r7
 8000e22:	f85d 7b04 	ldr.w	r7, [sp], #4
 8000e26:	4770      	bx	lr

08000e28 <HAL_TIMEx_BreakCallback>:
  * @brief  Hall Break detection callback in non-blocking mode
  * @param  htim TIM handle
  * @retval None
  */
__weak void HAL_TIMEx_BreakCallback(TIM_HandleTypeDef *htim)
{
 8000e28:	b480      	push	{r7}
 8000e2a:	b083      	sub	sp, #12
 8000e2c:	af00      	add	r7, sp, #0
 8000e2e:	6078      	str	r0, [r7, #4]
  UNUSED(htim);

  /* NOTE : This function should not be modified, when the callback is needed,
            the HAL_TIMEx_BreakCallback could be implemented in the user file
   */
}
 8000e30:	bf00      	nop
 8000e32:	370c      	adds	r7, #12
 8000e34:	46bd      	mov	sp, r7
 8000e36:	f85d 7b04 	ldr.w	r7, [sp], #4
 8000e3a:	4770      	bx	lr

08000e3c <__libc_init_array>:
 8000e3c:	b570      	push	{r4, r5, r6, lr}
 8000e3e:	4e0d      	ldr	r6, [pc, #52]	; (8000e74 <__libc_init_array+0x38>)
 8000e40:	4c0d      	ldr	r4, [pc, #52]	; (8000e78 <__libc_init_array+0x3c>)
 8000e42:	1ba4      	subs	r4, r4, r6
 8000e44:	10a4      	asrs	r4, r4, #2
 8000e46:	2500      	movs	r5, #0
 8000e48:	42a5      	cmp	r5, r4
 8000e4a:	d109      	bne.n	8000e60 <__libc_init_array+0x24>
 8000e4c:	4e0b      	ldr	r6, [pc, #44]	; (8000e7c <__libc_init_array+0x40>)
 8000e4e:	4c0c      	ldr	r4, [pc, #48]	; (8000e80 <__libc_init_array+0x44>)
 8000e50:	f000 f818 	bl	8000e84 <_init>
 8000e54:	1ba4      	subs	r4, r4, r6
 8000e56:	10a4      	asrs	r4, r4, #2
 8000e58:	2500      	movs	r5, #0
 8000e5a:	42a5      	cmp	r5, r4
 8000e5c:	d105      	bne.n	8000e6a <__libc_init_array+0x2e>
 8000e5e:	bd70      	pop	{r4, r5, r6, pc}
 8000e60:	f856 3025 	ldr.w	r3, [r6, r5, lsl #2]
 8000e64:	4798      	blx	r3
 8000e66:	3501      	adds	r5, #1
 8000e68:	e7ee      	b.n	8000e48 <__libc_init_array+0xc>
 8000e6a:	f856 3025 	ldr.w	r3, [r6, r5, lsl #2]
 8000e6e:	4798      	blx	r3
 8000e70:	3501      	adds	r5, #1
 8000e72:	e7f2      	b.n	8000e5a <__libc_init_array+0x1e>
 8000e74:	08000e9c 	.word	0x08000e9c
 8000e78:	08000e9c 	.word	0x08000e9c
 8000e7c:	08000e9c 	.word	0x08000e9c
 8000e80:	08000ea0 	.word	0x08000ea0

08000e84 <_init>:
 8000e84:	b5f8      	push	{r3, r4, r5, r6, r7, lr}
 8000e86:	bf00      	nop
 8000e88:	bcf8      	pop	{r3, r4, r5, r6, r7}
 8000e8a:	bc08      	pop	{r3}
 8000e8c:	469e      	mov	lr, r3
 8000e8e:	4770      	bx	lr

08000e90 <_fini>:
 8000e90:	b5f8      	push	{r3, r4, r5, r6, r7, lr}
 8000e92:	bf00      	nop
 8000e94:	bcf8      	pop	{r3, r4, r5, r6, r7}
 8000e96:	bc08      	pop	{r3}
 8000e98:	469e      	mov	lr, r3
 8000e9a:	4770      	bx	lr
